:100000007AC0000096C0000094C0000092C00000BA
:1000100090C000008EC000008CC000008AC00000AC
:1000200088C0000086C0000084C0000082C00000BC
:1000300016C100007EC000007CC000007AC0000035
:1000400078C0000076C0000074C0000072C00000DC
:1000500070C000006EC000006CC000006AC00000EC
:1000600068C0000066C0000005C1000062C000005A
:1000700060C000005EC000005CC000005AC000000C
:1000800058C0000056C0000054C00000036EDB36AC
:100090003D9A9999993DABAAAA2A3E000000803F5B
:1000A000084AD73B3BCE016E84BCBFFDC12F3D6CDF
:1000B00074319ABD56833DDA3D00C77F11BED9E445
:1000C000BB4C3E916BAAAABE000000803F072C7A71
:1000D000A5BA6CC590DA3B9365FC8BBC53F810FD58
:1000E0003C5692834DBD879D3AB63DCBC9BF5BBEA2
:1000F00073DA0FC93F0011241FBECFEFD0E1DEBF7E
:10010000CDBF11E0A0E0B1E0E6E2FCE200E00BBF11
:1001100002C007900D92A636B107D9F721E0A6E6F6
:10012000B1E001C01D92AF39B207E1F7C9D20C941A
:10013000111666CFE5E6F0E080818B7F80838081B9
:100140008D7F808380818160808386EF8A95F1F73F
:1001500081E08BBB86EF8A95F1F780818E7F80836B
:1001600082E006C0E6E6FEE03197F1F70000892F55
:100170009FEF980F8111F6CF0895DB01882314F5C6
:10018000E5E6F0E090819B7F908390819D7F908356
:1001900090819160908396EF9A95F1F791E09BBBE7
:1001A00096EF9A95F1F790819E7F908392E006C03A
:1001B000E6E6FEE03197F1F70000922F2FEF290FCE
:1001C0009111F6CF282F207130E035952795359580
:1001D000279535952795359527958F70F0E42F9FB6
:1001E000800D11248068E5E6F0E090819B7F90838C
:1001F00090819D7F908390819160908396EF9A95F6
:10020000F1F78BBB86EF8A95F1F780818E7F808333
:1002100022C0119681E006C0E6E6FEE03197F1F7D4
:100220000000822F2FEF280F8111F6CFE5E6F0E0D6
:1002300080818460808380818D7F808380818160E4
:10024000808386EF8A95F1F79BBB96EF9A95F1F73D
:1002500080818E7F80839C919111DBCF08951F92C6
:100260000F920FB60F92112400000F900FBE0F9047
:100270001F9018951F920F920FB60F9211240BB674
:100280000F922F923F924F925F926F927F928F9236
:100290009F92AF92BF92CF92DF92EF92FF920F9315
:1002A0001F932F933F934F935F936F937F938F93FE
:1002B0009F93AF93BF93EF93FF93CF93DF9300D0C0
:1002C00000D0CDB7DEB783E791E00E942C0AE3E7C8
:1002D000F1E060817181072E000C880B990B0E9460
:1002E0006D1120E030E040E059E30E9487124B019D
:1002F0005C016091750170917601072E000C880BEE
:10030000990B0E946D1120E030E040E059E30E941B
:100310008712C62E272E382E192F609177017091E3
:100320007801072E000C880B990B0E946D1120E0BC
:1003300030E040E059E30E948712062FF72EE82EA6
:10034000D92E6091790170917A01072E000C880BEB
:10035000990B0E946D1120E030E043E053E40E94CD
:10036000D71025E33AEF4EE85CE30E9487126983D9
:100370007A838B839C8360917B0170917C01072E33
:10038000000C880B990B0E946D1120E030E043E0D7
:1003900053E40E94D71025E33AEF4EE85CE30E9455
:1003A00087122B013C0160917D0170917E01072E27
:1003B000000C880B990B0E946D1120E030E043E0A7
:1003C00053E40E94D71025E33AEF4EE85CE30E9425
:1003D0008712DF92EF92FF920F931F933F922F921B
:1003E000CF926B017C019301820149815A816B811B
:1003F0007C8183E891E00E94EA0B60918701709113
:1004000088018091890190918A0120918701309122
:1004100088014091890150918A010E9487126B01E5
:100420007C0160918B0170918C0180918D01909184
:100430008E0120918B0130918C0140918D01509162
:100440008E010E9487129B01AC01C701B6010E9478
:10045000F60F9B01AC010E94F60F9B01AC0160E01E
:1004600070E080E89FE30E94F50F6B017C01E3E8F8
:10047000F1E06081718182819381209187013091C7
:1004800088014091890150918A010E9487124B0195
:100490005C0160918B0170918C0180918D01909134
:1004A0008E0120918F0130919001409191015091E6
:1004B00092010E9487129B01AC01C501B4010E9408
:1004C000F60F9B01AC010E94F60FA70196010E9456
:1004D000801020EE3EE245E652E40E9487126093CF
:1004E0009301709394018093950190939601E3E8B2
:1004F000F1E0608171818281938120918B01309143
:100500008C0140918D0150918E010E9487126B01E8
:100510007C0160918F017091900180919101909187
:100520009201209187013091880140918901509179
:100530008A010E9487129B01AC01C701B6010E948B
:10054000F50F9B01AC010E94F60F0E945A1020EE9D
:100550003EE245E652E40E94871260937F01709369
:100560008001809381019093820160918B01709151
:100570008C0180918D0190918E0120918B013091A1
:100580008C0140918D0150918E010E9487126B0168
:100590007C0160918F017091900180919101909107
:1005A000920120918F0130919001409191015091E1
:1005B00092010E9487129B01AC01C701B6010E9403
:1005C000F60F9B01AC010E94F60F9B01AC0160E0AD
:1005D00070E080E89FE30E94F50F6B017C01E3E887
:1005E000F1E0608171818281938120918F0130914E
:1005F000900140919101509192010E9487124B010C
:100600005C016091870170918801809189019091CE
:100610008A0120918B0130918C0140918D01509184
:100620008E010E9487129B01AC01C501B4010E949A
:10063000F60F9B01AC010E94F60FA70196010E94E4
:10064000801020EE3EE245E652E40E94871260935D
:100650009B0170939C0180939D0190939E0181E08A
:10066000809366010FB6F894DEBF0FBECDBF0F902A
:100670000F900F900F90DF91CF91FF91EF91BF916D
:10068000AF919F918F917F916F915F914F913F912A
:100690002F911F910F91FF90EF90DF90CF90BF901F
:1006A000AF909F908F907F906F905F904F903F9012
:1006B0002F900F900BBE0F900FBE0F901F901895AC
:1006C000CF93DF93CDB7DEB7E4970FB6F894DEBFD4
:1006D0000FBECDBFF8948FEF8ABBE4E6F0E08081D7
:1006E00087608083E5E6F0E080818B7F8083808176
:1006F0008D7F808380818160808326EF2A95F1F74A
:1007000088E38BBB86EF8A95F1F780818E7F8083AB
:1007100084E006C0E6E6FEE03197F1F70000892F9D
:100720009FEF980F8111F6CFE5E6F0E080818B7F97
:10073000808380818D7F808380818160808326EFAC
:100740002A95F1F788E38BBB86EF8A95F1F78081D4
:100750008E7F808384E006C0E6E6FEE03197F1F705
:100760000000892F9FEF980F8111F6CFE5E6F0E0AA
:1007700080818B7F808380818D7F80838081816079
:10078000808326EF2A95F1F788E38BBB86EF8A9565
:10079000F1F780818E7F808384E006C0E6E6FEE08C
:1007A0003197F1F70000892F9FEF980F8111F6CF55
:1007B000E5E6F0E080818B7F808380818D7F808380
:1007C00080818160808326EF2A95F1F78EE08BBBD4
:1007D00086EF8A95F1F780818E7F808382E006C064
:1007E000E6E6FEE03197F1F70000892F9FEF980FC2
:1007F0008111F6CFE5E6F0E080818B7F80838081F8
:100800008D7F808380818160808326EF2A95F1F738
:1008100086E08BBB86EF8A95F1F780818E7F80839F
:1008200082E006C0E6E6FEE03197F1F70000892F8E
:100830009FEF980F8111F6CF7DDC68D23FD18111F7
:1008400013C06CE271E080E898DC88EE93E006C0AB
:1008500086E69EE00197F1F70000C9019C01215056
:100860003109892BA9F724C01F928F9381E391E06E
:100870009F938F938E010F5F1F4F1F930F930E94C3
:100880003613B80180E879DC0F900F900F900F902D
:100890000F900F9088EE93E006C0E6E6FEE03197F9
:1008A000F1F70000C9019C0121503109892BA9F7FA
:1008B000789440DC809166018823E1F31092660110
:1008C000F89460917F0170918001809181019091F5
:1008D00082010E943F117F936F9360919301709109
:1008E000940180919501909196010E943F117F9310
:1008F0006F9389E391E09F938F93CE0145969F93E9
:100900008F930E943613E5E6F0E080818B7F808331
:1009100080818D7F808380818160808326EF2A950E
:10092000F1F781E08BBB86EF8A95F1F780818E7FAE
:1009300080830FB6F894DEBF0FBECDBF82E006C045
:10094000E6E6FEE03197F1F70000892F9FEF980F60
:100950008111F6CFE5E6F0E080818B7F8083808196
:100960008D7F808380818160808326EF2A95F1F7D7
:1009700080E88BBB86EF8A95F1F780818E7F80833C
:10098000DE01559622C0119681E006C0E6E6FEE043
:100990003197F1F70000822F2FEF280F8111F6CF4A
:1009A000E5E6F0E080818460808380818D7F8083B4
:1009B00080818160808326EF2A95F1F79BBB86EFCB
:1009C0008A95F1F780818E7F80839C919111DBCF96
:1009D00060919B0170919C0180919D0190919E017D
:1009E0000E943F117F936F9383E491E09F938F93D5
:1009F0008E010B5E1F4F1F930F930E943613E5E687
:100A0000F0E080818B7F808380818D7F80838081F7
:100A10008160808396EF9A95F1F780EC8BBB26EF8F
:100A20002A95F1F780818E7F80830F900F900F9031
:100A30000F900F900F90D80122C0119681E006C050
:100A4000E6E6FEE03197F1F70000822F2FEF280F46
:100A50008111F6CFE5E6F0E08081846080838081BB
:100A60008D7F808380818160808326EF2A95F1F7D6
:100A70009BBB86EF8A95F1F780818E7F80839C9166
:100A80009111DBCF9FEFEFE7F4E09150E040F040B1
:100A9000E1F700C0000078940DCF10928B008BE03E
:100AA00080938A008FEF98E0909387008093860070
:100AB000EDE7F0E0808180618083089584EA80938F
:100AC000740080E090E007C09C012F5F3F4F8131B0
:100AD000974260F4C901209174002223ACF7809101
:100AE0007100887F883021F082E003C081E001C07E
:100AF00080E0811198C090ED9093730094E89093FA
:100B0000740020E030E007C0A9014F5F5F4F213142
:100B1000374260F49A01909174009923ACF7909158
:100B20007100987F983119F082E001C081E0811155
:100B30007CC095E79093730094E89093740020E054
:100B400030E007C0A9014F5F5F4F2131374260F4A9
:100B50009A01909174009923ACF790917100987F5D
:100B6000983219F082E001C081E0811160C094EAFE
:100B70009093740020E030E007C0A9014F5F5F4F01
:100B80002131374260F49A01909174009923ACF7B7
:100B900090917100987F903119F082E001C081E05E
:100BA000811147C091ED9093730094E89093740085
:100BB00020E030E007C0A9014F5F5F4F213137428D
:100BC00060F49A01909174009923ACF790917100B0
:100BD000987F903419F082E001C081E081112BC030
:100BE00094E89093740020E030E007C0A9014F5FC3
:100BF0005F4F2131374260F49A019091740099233C
:100C0000ACF790917100987F983519F082E001C09F
:100C100081E0811102C06091730081110EC094E9DE
:100C2000909374000BC060E009C060E007C060E012
:100C300005C060E003C060E001C060E0811165C0F4
:100C4000E5E6F0E090819B7F908390819D7F90838B
:100C500090819160908326EF2A95F1F791E09BBBFC
:100C600036EF3A95F1F790819E7F908392E006C02F
:100C7000E6E6FEE03197F1F70000922F2FEF290F03
:100C80009111F6CFE5E6F0E090819B7F9083908113
:100C90009D7F908390819160908326EF2A95F1F754
:100CA00090E89BBB36EF3A95F1F790819E7F908359
:100CB00091E006C0E6E6FEE03197F1F70000922FE2
:100CC0002FEF290F9111F6CFE5E6F0E090819460C7
:100CD000908390819D7F908390819160908326EF97
:100CE0002A95F1F76BBB36EF3A95F1F790819E7F2D
:100CF00090834FEF9FEFECE241509040E040E1F7EE
:100D000000C00000683609F087E30895C6DE10923F
:100D100071008FE780937000E4E7F0E084E0808367
:100D20002FEF4FE754E0215040405040E1F700C022
:100D3000000084EA808380E090E007C09C012F5F80
:100D40003F4F8131974260F4C90120917400222302
:100D5000ACF780917100887F883021F042E003C0B9
:100D600041E001C040E041115DC080ED809373001F
:100D700084E88093740080E090E007C09C012F5FBE
:100D80003F4F8131974260F4C901209174002223C2
:100D9000ACF780917100887F883119F042E001C082
:100DA00041E041113FC08BE68093730084E880935B
:100DB000740080E090E007C09C012F5F3F4F8131BD
:100DC000974260F4C901209174002223ACF780910E
:100DD0007100887F883219F042E001C041E0411182
:100DE00021C080E88093730084E88093740080E0E1
:100DF00090E007C09C012F5F3F4F8131974260F424
:100E0000C901209174002223ACF780917100887F82
:100E1000883219F042E001C041E0411103C084E989
:100E2000809374008FEF9FE724E081509040204032
:100E3000E1F700C0000084EA8093740080E090E055
:100E400007C09C012F5F3F4F8131974260F4C90179
:100E5000209174002223ACF780917100887F883044
:100E600021F042E003C041E001C040E041115DC01B
:100E700080ED8093730084E88093740080E090E0BC
:100E800007C09C012F5F3F4F8131974260F4C90139
:100E9000209174002223ACF780917100887F883103
:100EA00019F042E001C041E041113FC089E1809367
:100EB000730084E88093740080E090E007C09C0198
:100EC0002F5F3F4F8131974260F4C9012091740038
:100ED0002223ACF780917100887F883219F042E0BC
:100EE00001C041E0411121C089E08093730084E892
:100EF0008093740080E090E007C09C012F5F3F4F1B
:100F00008131974260F4C901209174002223ACF72B
:100F100080917100887F883219F042E001C041E081
:100F2000411103C084E9809374008FEF9FE724E0B0
:100F3000815090402040E1F700C0000084EA809397
:100F4000740080E090E007C09C012F5F3F4F81312B
:100F5000974260F4C901209174002223ACF780917C
:100F60007100887F883021F042E003C041E001C079
:100F700040E041115DC080ED8093730084E8809370
:100F8000740080E090E007C09C012F5F3F4F8131EB
:100F9000974260F4C901209174002223ACF780913C
:100FA0007100887F883119F042E001C041E04111B1
:100FB0003FC08AE18093730084E88093740080E0EE
:100FC00090E007C09C012F5F3F4F8131974260F452
:100FD000C901209174002223ACF780917100887FB1
:100FE000883219F042E001C041E0411121C082E0A5
:100FF0008093730084E88093740080E090E007C0E1
:101000009C012F5F3F4F8131974260F4C9012091CD
:1010100074002223ACF780917100887F883219F028
:1010200042E001C041E0411103C084E980937400B3
:101030008FEF9FE724E0815090402040E1F700C00F
:10104000000084EA8093740080E090E007C09C0177
:101050002F5F3F4F8131974260F4C90120917400A6
:101060002223ACF780917100887F883021F042E024
:1010700003C041E001C040E041115CC080ED8093BD
:10108000730084E88093740080E090E007C09C01C6
:101090002F5F3F4F8131974260F4C9012091740066
:1010A0002223ACF780917100887F883119F042E0EB
:1010B00001C041E041113EC08BE18093730084E8A0
:1010C0008093740080E090E007C09C012F5F3F4F49
:1010D0008131974260F4C901209174002223ACF75A
:1010E00080917100887F883219F042E001C041E0B0
:1010F000411120C01092730084E88093740080E056
:1011000090E007C09C012F5F3F4F8131974260F410
:10111000C901209174002223ACF780917100887F6F
:10112000883219F042E001C041E0411103C084E976
:10113000809374008FEF9FE724E08150904020401F
:10114000E1F700C0000084EA8093740080E090E042
:1011500007C09C012F5F3F4F8131974260F4C90166
:10116000209174002223ACF780917100887F883031
:1011700021F042E003C041E001C040E041115DC008
:1011800080ED8093730084E88093740080E090E0A9
:1011900007C09C012F5F3F4F8131974260F4C90126
:1011A000209174002223ACF780917100887F8831F0
:1011B00019F042E001C041E041113FC08CE1809351
:1011C000730084E88093740080E090E007C09C0185
:1011D0002F5F3F4F8131974260F4C9012091740025
:1011E0002223ACF780917100887F883219F042E0A9
:1011F00001C041E0411121C088E08093730084E880
:101200008093740080E090E007C09C012F5F3F4F07
:101210008131974260F4C901209174002223ACF718
:1012200080917100887F883219F042E001C041E06E
:10123000411103C084E9809374008FEF9FE724E09D
:10124000815090402040E1F700C0000084EA809384
:10125000740080E090E007C09C012F5F3F4F813118
:10126000974260F4C901209174002223ACF7809169
:101270007100887F883021F042E003C041E001C066
:1012800040E041115DC080ED8093730084E880935D
:10129000740080E090E007C09C012F5F3F4F8131D8
:1012A000974260F4C901209174002223ACF7809129
:1012B0007100887F883119F042E001C041E041119E
:1012C0003FC08BE68093730084E88093740080E0D5
:1012D00090E007C09C012F5F3F4F8131974260F43F
:1012E000C901209174002223ACF780917100887F9E
:1012F000883219F042E001C041E0411121C08BE089
:101300008093730084E88093740080E090E007C0CD
:101310009C012F5F3F4F8131974260F4C9012091BA
:1013200074002223ACF780917100887F883219F015
:1013300042E001C041E0411103C084E980937400A0
:101340008FEF9FE724E0815090402040E1F700C0FC
:10135000000084EA8093740080E090E007C09C0164
:101360002F5F3F4F8131974260F4C9012091740093
:101370002223ACF780917100887F883021F042E011
:1013800003C041E001C040E041115CC080ED8093AA
:10139000730084E88093740080E090E007C09C01B3
:1013A0002F5F3F4F8131974260F4C9012091740053
:1013B0002223ACF780917100887F883119F042E0D8
:1013C00001C041E041113EC08CE68093730084E887
:1013D0008093740080E090E007C09C012F5F3F4F36
:1013E0008131974260F4C901209174002223ACF747
:1013F00080917100887F883219F042E001C041E09D
:10140000411120C01092730084E88093740080E042
:1014100090E007C09C012F5F3F4F8131974260F4FD
:10142000C901209174002223ACF780917100887F5C
:10143000883219F042E001C041E0411103C084E963
:10144000809374008FEF9FE724E08150904020400C
:10145000E1F700C0000008950F931F93CF93DF932F
:10146000CDB7DEB76E970FB6F894DEBF0FBECDBF17
:101470008C0184EA8093740080E090E007C09C01B6
:101480002F5F3F4F8131974238F4C901209174009A
:101490002223ACF78091710080ED8093730084E883
:1014A0008093740080E090E007C09C012F5F3F4F65
:1014B0008131974238F4C901209174002223ACF79E
:1014C000809171008BE38093730084E880937400B3
:1014D00080E090E007C09C012F5F3F4F8131974231
:1014E00038F4C901209174002223ACF78091710077
:1014F00084EA8093740080E090E007C09C012F5F35
:101500003F4F8131974238F4C90120917400222362
:10151000ACF78091710081ED8093730084E8809333
:10152000740080E090E008C09C012F5F3F4F813144
:10153000974208F0ACC0C901209174002223A4F79F
:101540008091710040E0A4C0642F70E084EC80932F
:10155000740080E090E007C09C012F5F3F4F813115
:10156000974260F4C901209174002223ACF7809166
:101570007100887F803521F082E003C081E001C0E6
:1015800080E0811109C090917300E1E0F0E0EC0F80
:10159000FD1FE60FF71F9083882309F476C094E9B6
:1015A000909374001F928F9388E491E09F938F93A0
:1015B000CE0140969F938F930E943613E5E6F0E0AC
:1015C00080818B7F808380818D7F8083808181601B
:1015D000808386EF8A95F1F781E08BBB46EF4A95D1
:1015E000F1F780818E7F80830F900F900F900F9086
:1015F0000F900F9082E006C0E6E6FEE03197F1F72B
:101600000000892F9FEF980F8111F6CFE5E6F0E0FB
:1016100080818B7F808380818D7F808380818160CA
:10162000808346EF4A95F1F780E88BBB56EF5A95D9
:10163000F1F780818E7F8083DE01509622C0119663
:1016400081E006C0E6E6FEE03197F1F70000822F68
:101650002FEF280F8111F6CFE5E6F0E0808184605E
:10166000808380818D7F808380818160808346EF4D
:101670004A95F1F79BBB56EF5A95F1F780818E7F23
:1016800080839C919111DBCF06C04F5F01C040E089
:101690004D3008F459CF84E88093740080E090E0E6
:1016A00007C09C012F5F3F4F8131974260F4C90111
:1016B000209174002223ACF780917100887F8835D7
:1016C00021F082E003C081E001C080E0811103C00D
:1016D000809173008E8784E980937400898190E003
:1016E000982F88272A81822BF801918380838B8110
:1016F00090E0982F88272C81822B938382838D8181
:1017000090E0982F88272E81822B9583848389856A
:1017100090E0982F88272A85822B978386838B8554
:1017200090E0982F88272C85822B918780878D8544
:1017300090E0982F88272E85822B938782876E963C
:101740000FB6F894DEBF0FBECDBFDF91CF911F91D2
:101750000F9108958F929F92AF92BF92CF92DF9296
:10176000EF92FF926B017C0120E030E040E05FE30C
:10177000CED646015701B594A794979487940F2E1F
:10178000FFEDCF2EF9E5DF2EF7E3EF2EFFE5FF2E7D
:10179000F02DC818D908EA08FB08A7019601B7D6AA
:1017A0009B01AC01C701B601B2D69B01AC0160E060
:1017B00070E080EC9FE319D49B01AC01C701B60136
:1017C000A6D6FF90EF90DF90CF90BF90AF909F9004
:1017D0008F9008952F923F924F925F926F927F92D7
:1017E0008F929F92AF92BF92CF92DF92EF92FF9231
:1017F0000F931F93CF93DF93CDB7DEB76C970FB6E0
:10180000F894DEBF0FBECDBF1C0149875A876B8796
:101810007C870D871E872F87388B20E030E0A90159
:10182000C501B401C0D4811115C020E030E0A90188
:1018300069A97AA98BA99CA9B6D481110BC020E013
:1018400030E0A9016DA97EA98FA998ADACD48823F9
:1018500009F4FAC1A5019401C501B40158D62B01C0
:101860003C0129A93AA94BA95CA9CA01B9014FD6E3
:101870009B01AC01C301B201B9D32B013C012DA9DD
:101880003EA94FA958ADCA01B90141D69B01AC018F
:10189000C301B201ABD35EDF2B013C019B01AC0164
:1018A000C501B40134D6698B7A8B8B8B9C8BA301D9
:1018B000920169A97AA98BA99CA929D669837A83FF
:1018C0008B839C83A30192016DA97EA98FA998ADFA
:1018D0001ED62B013C0100E011E0D80114966D9159
:1018E0007D918D919C9117971C962D913D914D91D5
:1018F0005C911F970CD64B015C01F80160817181EE
:1019000082819381208531854285538500D69B0154
:10191000AC01C501B40169D36D837E838F83988741
:10192000D8016D917D918D919C91139714962D9175
:101930003D914D915C911797EAD54B015C01F801FF
:101940006085718582859385248535854685578593
:10195000DED59B01AC01C501B40148D36D8B7E8BF4
:101960008F8B988FD8016D917D918D919C9113975C
:101970002D913D914D915C91CAD520E030E040E041
:101980005FE333D34B015C01F8016485758586857F
:1019900097852485358546855785B9D59B01AC014A
:1019A000C501B40123D3698F7A8F8B8F9C8F9B01E4
:1019B000AC0169817A818B819C81A9D54B015C0145
:1019C0002D893E894F89588DC301B201A0D59B0155
:1019D000AC01C501B40109D34B015C012D813E81ED
:1019E0004F815885C301B20192D52B013C01298D4D
:1019F0003A8D4B8D5C8D69897A898B899C8987D5D5
:101A00009B01AC01C301B201F0D22B013C012D8935
:101A10003E894F89588D69897A898B899C8977D5C8
:101A2000698B7A8B8B8B9C8B2D813E814F81588566
:101A300069817A818B819C816AD59B01AC0169891E
:101A40007A898B899C89D1D269837A838B839C83A1
:101A50006091100170911101809112019091130118
:101A600020E030E0A90148D518160CF095C020916F
:101A70001001309111014091120150911301C501E3
:101A8000B40145D52AE037ED43E25CE340D520912F
:101A90006F01309170014091710150917201A6D295
:101AA00060936F0170937001809371019093720144
:101AB00020911001309111014091120150911301B8
:101AC000C301B20124D52AE037ED43E25CE31FD520
:101AD00020916B0130916C0140916D0150916E012C
:101AE00085D260936B0170936C0180936D0190932C
:101AF0006E0120911001309111014091120150911D
:101B0000130169817A818B819C8101D52AE037EDAF
:101B100043E25CE3FCD4209167013091680140917D
:101B2000690150916A0162D2609367017093680104
:101B30008093690190936A0120916F013091700147
:101B4000409171015091720169857A858B859C85E0
:101B50004DD269877A878B879C8720916B01309162
:101B60006C0140916D0150916E016D857E858F8570
:101B700098893CD26D877E878F87988B20916701EB
:101B8000309168014091690150916A01C701B60125
:101B90002DD26B017C0118C010926F011092700160
:101BA000109271011092720110926B0110926C01EF
:101BB00010926D0110926E011092670110926801EF
:101BC0001092690110926A0120911401309115015F
:101BD0004091160150911701C501B40198D49B01A1
:101BE000AC0169857A858B859C8500D269877A8767
:101BF0008B879C872091140130911501409116012B
:101C000050911701C301B20182D49B01AC016D85D3
:101C10007E858F859889EAD16D877E878F87988B9F
:101C20002091140130911501409116015091170136
:101C300069817A818B819C816AD49B01AC01C70147
:101C4000B601D4D16B017C012AE037ED43EA5BE3B6
:101C500069857A858B859C855AD469877A878B8735
:101C60009C872AE037ED43EA5BE36D857E858F85AF
:101C700098894DD46D877E878F87988B2AE037EDC2
:101C800043EA5BE3C701B60142D469837A838B835D
:101C90009C8300E011E0D8018D919D910D90BC9145
:101CA000A02D8D839E83AF83B887F80184809580B3
:101CB000A680B780C084D184E284F384A501940116
:101CC000505869857A858B859C8521D42B013C01F0
:101CD000A70196016D857E858F85988918D49B0113
:101CE000AC01C301B20181D12B013C01D8011C968A
:101CF0002D913D914D915C911F9769817A818B81E6
:101D00009C8105D49B01AC01C301B2016ED1F801E5
:101D1000208131814281538169D1D8016D937D93B6
:101D20008D939C9313972D813E814F8158856985B2
:101D30007A858B859C85EBD32B013C01A70196010D
:101D400069817A818B819C81E2D39B01AC01C301C3
:101D5000B2014CD12B013C01F80124853585468523
:101D600057856D857E858F859889D1D39B01AC0180
:101D7000C301B2013AD1D80114962D913D914D91F4
:101D80005C91179733D1F8016483758386839783B9
:101D90002D813E814F8158856D857E858F859889FF
:101DA000B6D32B013C01A501940169817A818B8115
:101DB0009C81ADD39B01AC01C301B20116D12B01B3
:101DC0003C01D8011C962D913D914D915C911F973E
:101DD00069857A858B859C859AD39B01AC01C3016B
:101DE000B20104D1F8012085318542855385FED0AA
:101DF000D80118966D937D938D939C931B971C9699
:101E00004D905D906D907C901F972D813E814F810C
:101E1000588569817A818B819C8179D369837A83A2
:101E20008B839C83A50194016D857E858F85988920
:101E30006ED39B01AC0169817A818B819C81D6D064
:101E40004B015C01A701960169857A858B859C858C
:101E50005ED39B01AC01C501B401C7D09B01AC01AD
:101E6000C301B201C3D0F80164877587868797875D
:101E7000608171818281938120813181428153818E
:101E800046D36B017C01D80114966D917D918D91A3
:101E90009C91179714962D913D914D915C911797B8
:101EA00036D39B01AC01C701B601A0D06B017C0108
:101EB000F80160857185828593852085318542850D
:101EC000538525D39B01AC01C701B6018FD06B01AF
:101ED0007C01D8011C966D917D918D919C911F97ED
:101EE0001C962D913D914D915C911F9710D39B01B4
:101EF000AC01C701B6017AD02DDC6B017C01F80181
:101F0000208131814281538102D3D8016D937D9329
:101F10008D939C93139714962D913D914D915C91C7
:101F20001797C701B601F3D2F801648375838683DE
:101F300097832085318542855385C701B601E7D255
:101F4000D80118966D937D938D939C931B971C9647
:101F50002D913D914D915C911F97C701B601D7D24C
:101F6000F801648775878687978780819181A28130
:101F7000B381F10180839183A283B383F8018481CB
:101F80009581A681B781F10184839583A683B78368
:101F9000F80180859185A285B385F10180879187BD
:101FA000A287B387F80184859585A685B785F10159
:101FB00084879587A687B7876C960FB6F894DEBF9F
:101FC0000FBECDBFDF91CF911F910F91FF90EF908A
:101FD000DF90CF90BF90AF909F908F907F906F9049
:101FE0005F904F903F902F9008955058BB27AA279D
:101FF0000ED048C239D230F03ED220F031F49F3FAB
:1020000011F41EF4F8C10EF4E095E7FBE0C1E92FEE
:102010004AD280F3BA17620773078407950718F04E
:1020200071F49EF562C20EF4E0950B2EBA2FA02D2E
:102030000B01B90190010C01CA01A0011124FF2775
:10204000591B99F0593F50F4503E68F11A16F04070
:10205000A22F232F342F4427585FF3CF469537956F
:102060002795A795F0405395C9F77EF41F16BA0B34
:10207000620B730B840BBAF09150A1F0FF0FBB1FE2
:10208000661F771F881FC2F70EC0BA0F621F731F2B
:10209000841F48F4879577956795B795F7959E3F88
:1020A00008F0B3CF9395880F08F09927EE0F979516
:1020B000879508959F939F77EEE389379E0720F4D5
:1020C000ECE8F0E0C0D109C043D19058A2EA2AED73
:1020D0003FE049EC5FE39BDFD5D10F9007FC9058C0
:1020E0000895C2D158F080E891E009F49EEFC3D181
:1020F00028F040E851E059F45EEF09C07CC1F5C119
:10210000E92FE078D0D168F3092E052AC1F326170C
:1021100037074807590738F00E2E07F8E02569F011
:10212000E025E0640AC0EF6307F8009407FADB01DA
:10213000B9019D01DC01CA01AD01EF9347D0A2D1E5
:102140000AD05F91552331F02BED3FE049E450FD7B
:1021500049EC4CCF0895DF93DD27B92FBF7740E8D6
:102160005FE31616170648075B0710F4D92FC8D18E
:102170009F938F937F936F936FD2E0EAF0E03ED10D
:1021800081D12F913F914F915F91CDD1DD2349F0C6
:102190009058A2EA2AED3FE049EC5FE3D0785D2752
:1021A00036DFDF916FC1EFD008F481E008950CD0E5
:1021B00069C161D140F058D130F021F45F3F19F08E
:1021C00006C1511193C117C16ED198F39923C9F378
:1021D0005523B1F3951B550BBB27AA27621773072D
:1021E000840738F09F5F5F4F220F331F441FAA1FE1
:1021F000A9F333D00E2E3AF0E0E830D091505040A1
:10220000E695001CCAF729D0FE2F27D0660F771F4E
:10221000881FBB1F261737074807AB07B0E809F030
:10222000BB0B802DBF01FF2793585F4F2AF09E3FC5
:10223000510568F0CCC05AC15F3FECF3983EDCF327
:10224000869577956795B795F7959F5FC9F7880F3E
:10225000911D9695879597F90895E1E0660F771F90
:10226000881FBB1F621773078407BA0720F0621B21
:10227000730B840BBA0BEE1F88F7E09508951BD102
:1022800088F09F5790F0B92F9927B751A0F0D1F05F
:10229000660F771F881F991F1AF0BA95C9F712C0E9
:1022A000B13081F022D1B1E008951FC1672F782F9E
:1022B0008827B85F39F0B93FCCF386957795679555
:1022C000B395D9F73EF490958095709561957F4FC1
:1022D0008F4F9F4F0895E89409C097FB3EF4909567
:1022E0008095709561957F4F8F4F9F4F9923A9F0EF
:1022F000F92F96E9BB279395F6958795779567957E
:10230000B795F111F8CFFAF4BB0F11F460FF1BC0C1
:102310006F5F7F4F8F4F9F4F16C0882311F096E954
:1023200011C0772321F09EE8872F762F05C0662302
:1023300071F096E8862F70E060E02AF09A95660FBB
:10234000771F881FDAF7880F9695879597F9089574
:10235000DF93CF931F930F938B01EC01EDECF0E033
:102360004DD090D09801AE018B01EC0160E070E09F
:1023700080E89FE33ADE32D19801AE010F911F91C0
:10238000CF91DF91D0C0990F0008550FAA0BE0E85C
:10239000FEEF16161706E807F907C0F01216130627
:1023A000E407F50798F0621B730B840B950B39F467
:1023B0000A2661F0232B242B252B21F408950A26CD
:1023C00009F4A140A6958FEF811D811D089597F90D
:1023D0009F6780E870E060E008959F3F31F0915082
:1023E00020F4879577956795B795880F911D9695F9
:1023F000879597F908959FEF80EC0895DF93CF9329
:102400001F930F93FF92EF92DF927B018C016894F0
:1024100005C0DA2EEF0187D0FE01E894A591259141
:10242000359145915591AEF3EF01F1DDFE01970134
:10243000A801DA9479F7DF90EF90FF900F911F9148
:10244000CF91DF9108959F938F937F936F93FF9325
:10245000EF939B01AC015BD0EF91FF91CFDF2F9108
:102460003F914F915F9153C000240A9416161706AE
:1024700018060906089500240A9412161306140675
:1024800005060895092E0394000C11F4882352F0D8
:10249000BB0F40F4BF2B11F460FF04C06F5F7F4F90
:1024A0008F4F9F4F089557FD9058440F551F59F077
:1024B0005F3F71F04795880F97FB991F61F09F3F31
:1024C00079F087950895121613061406551FF2CF5A
:1024D0004695F1DF08C0161617061806991FF1CFAA
:1024E00086957105610508940895E894BB276627D1
:1024F0007727CB0197F9089546DF08F48FEF089509
:102500009B01AC0160E070E080E89FE350CE0BD00F
:10251000B9CFAADF28F0AFDF18F0952309F057CF25
:102520006ACF1124E3CFBFDFA0F3959FD1F3950FBE
:1025300050E0551F629FF001729FBB27F00DB11D47
:10254000639FAA27F00DB11DAA1F649F6627B00DD7
:10255000A11D661F829F2227B00DA11D621F739FC0
:10256000B00DA11D621F839FA00D611D221F749FCE
:102570003327A00D611D231F849F600D211D822F15
:10258000762F6A2F11249F5750408AF0E1F088235C
:102590004AF0EE0FFF1FBB1F661F771F881F915069
:1025A0005040A9F79E3F510570F011CF9FCF5F3F7C
:1025B000ECF3983EDCF3869577956795B795F7959C
:1025C000E7959F5FC1F7FE2B880F911D9695879524
:1025D00097F9089511F40EF40ECFFFCE6CDFD0F30F
:1025E0009923D9F3CEF39F57550B87FF38D000249A
:1025F000A0E640EA900180585695979528F4805CB3
:10260000660F771F881F20F026173707480730F41A
:10261000621B730B840B202931294A2BA695179432
:102620000794202531254A2758F7660F771F881F02
:1026300020F026173707480730F4620B730B840B22
:10264000200D311D411DA09581F7B901842F9158AE
:10265000880F9695879508959B01AC0158CF9150AE
:102660005040660F771F881FD2F708950F931F936E
:10267000CF93DF93CDB7DEB72E970FB6F894DEBFBA
:102680000FBECDBF0D891E8986E08C831A83098316
:102690008FEF9FE79E838D83AE01475E5F4F6F890B
:1026A000788DCE01019610D0EF81F885E00FF11FF3
:1026B00010822E960FB6F894DEBF0FBECDBFDF910D
:1026C000CF911F910F9108952F923F924F925F9259
:1026D0006F927F928F929F92AF92BF92CF92DF9232
:1026E000EF92FF920F931F93CF93DF93CDB7DEB797
:1026F0002B970FB6F894DEBF0FBECDBF6C017B01E8
:102700008A01FC0117821682838181FFBFC1CE013D
:1027100001963C01F6019381F70193FD859193FFAA
:1027200081917F01882309F4ADC1853239F493FD8D
:10273000859193FF81917F01853221F4B60190E06C
:10274000D6D1E8CF912C212C312CFFE1F315D8F014
:102750008B3279F038F4803279F08332A1F4232D72
:1027600020611DC08D3261F0803369F4232D21601A
:1027700016C0832D8260382EE32DE4603E2E2AC0E1
:10278000F32DF8601DC037FC2DC020ED280F2A3036
:1027900040F08E32B9F436FC75C1232D2064322E00
:1027A00019C036FE06C08AE0989E200D1124922E94
:1027B00011C0EAE02E9E200D1124222EF32DF0628E
:1027C0003F2E08C08C3621F4832D8068382E02C03D
:1027D000883641F4F70193FD859193FF81917F0144
:1027E0008111B3CF982F9F7D9554933028F40C5FBF
:1027F0001F4F9FE399830DC0833631F0833771F00B
:10280000833509F055C020C0F801808189830E5FAF
:102810001F4F88248394912C530112C02801F2E0A9
:102820004F0E511CF801A080B18036FE03C0692D07
:1028300070E002C06FEF7FEFC5014ED14C01820105
:10284000F32DFF773F2E15C0280122E0420E511CC8
:10285000F801A080B18036FE03C0692D70E002C08F
:102860006FEF7FEFC5012DD14C01F32DF0683F2EA6
:10287000820133FC19C0822D90E088169906A0F4DD
:10288000B60180E290E033D12A94F5CFF50137FC10
:10289000859137FE81915F01B60190E028D121102A
:1028A0002A9421E0821A91088114910479F7E1C0F9
:1028B000843611F0893639F5F80137FE07C060819A
:1028C0007181828193810C5F1F4F08C0608171818B
:1028D000072E000C880B990B0E5F1F4FF32DFF7610
:1028E0003F2E97FF09C090958095709561957F4F19
:1028F0008F4F9F4FF0683F2E2AE030E0A30133D185
:10290000882E861844C0853731F4232D2F7EB22EB1
:102910002AE030E025C0932D997FB92E8F36C1F083
:1029200018F4883579F0AEC0803719F0883721F077
:10293000A9C0E92FE061BE2EB4FE0DC0FB2DF460EE
:10294000BF2E09C034FE0AC0292F2660B22E06C051
:1029500028E030E005C020E130E002C020E132E0B4
:10296000F801B7FE07C060817181828193810C5F9D
:102970001F4F06C06081718180E090E00E5F1F4FA5
:10298000A301F1D0882E8618FB2DFF773F2E36FE4F
:102990000DC0232D2E7FA22E891458F434FE0BC0B7
:1029A00032FC09C0832D8E7EA82E05C0B82CA32C26
:1029B00003C0B82C01C0B92CA4FE0FC0FE01E80D65
:1029C000F11D8081803321F49A2D997EA92E09C0B2
:1029D000A2FE06C0B394B39404C08A2D867809F091
:1029E000B394A3FC10C0A0FE06C0B21480F4280C5F
:1029F000922C9B180DC0B21458F4B60180E290E0FE
:102A000076D0B394F8CFB21418F42B1802C0982CD7
:102A1000212CA4FE0FC0B60180E390E068D0A2FE96
:102A200016C0A1FC03C088E790E002C088E590E0F2
:102A3000B6010CC08A2D867851F0A1FE02C08BE24F
:102A400001C080E2A7FC8DE2B60190E050D089146D
:102A500030F4B60180E390E04AD09A94F8CF8A949B
:102A6000F301E80DF11D8081B60190E040D08110A6
:102A7000F6CF222009F44ECEB60180E290E037D0A6
:102A80002A94F7CFF6018681978102C08FEF9FEFDE
:102A90002B960FB6F894DEBF0FBECDBFDF91CF915E
:102AA0001F910F91FF90EF90DF90CF90BF90AF906C
:102AB0009F908F907F906F905F904F903F902F905E
:102AC0000895FC010590615070400110D8F7809581
:102AD00090958E0F9F1F0895FC01615070400190EA
:102AE0000110D8F7809590958E0F9F1F08950F9332
:102AF0001F93CF93DF93FB01238121FD03C08FEF51
:102B00009FEF2CC022FF16C046815781248135815A
:102B10004217530744F4A081B1819D012F5F3F4FBD
:102B2000318320838C93268137812F5F3F4F3783FA
:102B3000268314C08B01EC01FB010084F185E02D9C
:102B40000995892BE1F6D80116968D919C911797DE
:102B5000019617969C938E931697CE01DF91CF9195
:102B60001F910F910895FA01AA27283051F12031C1
:102B700081F1E8946F936E7F6E5F7F4F8F4F9F4F11
:102B8000AF4FB1E03ED0B4E03CD0670F781F891F53
:102B90009A1FA11D680F791F8A1F911DA11D6A0F21
:102BA000711D811D911DA11D20D009F468943F91D4
:102BB0002AE0269F11243019305D3193DEF6CF01D3
:102BC0000895462F4770405D4193B3E00FD0C9F799
:102BD000F6CF462F4F70405D4A3318F0495D31FD06
:102BE0004052419302D0A9F7EACFB4E0A695979559
:102BF000879577956795BA95C9F70097610571052F
:102C000008959B01AC010A2E069457954795379578
:102C10002795BA95C9F7620F731F841F951FA01DD2
:062C20000895F894FFCFB7
:102C26000000803F000000000000000000000000DF
:102C3600CDCCCC3D000000406465677265653120EF
:102C46003A0064656772656532203A0050617373B5
:102C5600004661696C20256400723A256420703A4A
:102C6600256400793A256400726561642065727294
:102C76006F72202564004649464F20436F756E7477
:062C86003A202564000065
:00000001FF
