S01600005370686572655F436F6E74726F6C2E7372656367
S113000045C0000061C000005FC000005DC000008A
S11300105BC0000059C0000057C0000055C000007C
S113002053C0000051C000004FC000004DC000008C
S113003092C3000049C0000047C0000045C0000052
S113004043C0000041C0000040C000003DC00000AB
S11300503BC0000039C0000037C0000035C00000BC
S113006033C0000031C000002FC000002DC00000CC
S11300702BC0000029C0000027C0000025C00000DC
S113008023C0000021C000001FC0000011241FBEB7
S1130090CFEFD0E1DEBFCDBF11E0A0E0B1E0ECE0F6
S11300A0F1E100E00BBF02C007900D92A238B10746
S11300B0D9F721E0A2E8B1E001C01D92AB38B20744
S11300C0E1F754D30C9484089BCF1F920F920FB680
S11300D00F9211240BB60F928F939F93EF93FF937C
S11300E08CB18A3A31F491E0909382018093830138
S11300F013C0E0918201E83068F491E09E0F909380
S11301008201F0E0ED57FE4F8083983029F410927D
S1130110820102C010928201FF91EF919F918F9111
S11301200F900BBE0F900FBE0F901F90189510925A
S11301308201DAD4E5E6F0E080818B7F80838081E0
S11301408D7F808380818160808326EF2A95F1F7FB
S113015081E08BBB86EF8A95F1F780818E7F808367
S113016082E006C0E6E6FEE03197F1F70000892F51
S11301709FEF980F8111F6CFE5E6F0E080818B7F49
S1130180808380818D7F808380818160808326EF5E
S11301902A95F1F780E88BBB86EF8A95F1F7808189
S11301A08E7F8083A0E0B1E022C0119681E006C07A
S11301B0E6E6FEE03197F1F70000822F2FEF280FDB
S11301C08111F6CFE5E6F0E0808184608083808150
S11301D08D7F808380818160808326EF2A95F1F76B
S11301E09BBB86EF8A95F1F780818E7F80839C91FB
S11301F09111DBCFE5E6F0E080818B7F8083808105
S11302008D7F808380818160808396EF9A95F1F75A
S113021080EC8BBB26EF2A95F1F780818E7F80835B
S1130220A0E1B1E022C0119681E006C0E6E6FEE05E
S11302303197F1F70000822F2FEF280F8111F6CFAD
S1130240E5E6F0E080818460808380818D7F808317
S113025080818160808326EF2A95F1F79BBB86EF2E
S11302608A95F1F780818E7F80839C919111DBCFF9
S11302709FEFEFEFF3EB9150E040F040E1F700C067
S11302800000E5E6F0E080818B7F808380818D7FB4
S1130290808380818160808326EF2A95F1F781E055
S11302A08BBB86EF8A95F1F780818E7F808382E015
S11302B006C0E6E6FEE03197F1F70000892F9FEFD4
S11302C0980F8111F6CFE5E6F0E080818B7F808383
S11302D080818D7F808380818160808326EF2A9551
S11302E0F1F780E88BBB86EF8A95F1F780818E7FEA
S11302F08083A0E2B1E022C0119681E006C0E6E668
S1130300FEE03197F1F70000822F2FEF280F8111C3
S1130310F6CFE5E6F0E080818460808380818D7F84
S1130320808380818160808326EF2A95F1F79BBBCF
S113033086EF8A95F1F780818E7F80839C9191115D
S1130340DBCFE5E6F0E080818B7F808380818D7F49
S1130350808380818160808396EF9A95F1F780ECA9
S11303608BBB26EF2A95F1F780818E7F8083AEE2E6
S1130370B1E022C0119681E006C0E6E6FEE03197C6
S1130380F1F70000822F2FEF280F8111F6CFE5E659
S1130390F0E080818460808380818D7F8083808190
S11303A08160808326EF2A95F1F79BBB86EF8A95BF
S11303B0F1F780818E7F80839C919111DBCF9FEF39
S11303C0EFEFF3E29150E040F040E1F700C00000AD
S11303D0E5E6F0E080818B7F808380818D7F808360
S11303E080818160808326EF2A95F1F780EC8BBBB6
S11303F086EF8A95F1F780818E7F8083A7E3B1E051
S113040022C0119681E006C0E6E6FEE03197F1F7DE
S11304100000822F2FEF280F8111F6CFE5E6F0E0E0
S113042080818460808380818D7F808380818160EE
S1130430808326EF2A95F1F79BBB86EF8A95F1F727
S113044080818E7F80839C919111DBCF85EA56D386
S113045084E554D39FEFEFEFF3EB9150E040F0408D
S1130460E1F700C00000E5E6F0E080818B7F808347
S113047080818D7F808380818160808326EF2A95AF
S1130480F1F781E08BBB86EF8A95F1F780818E7F4F
S1130490808382E006C0E6E6FEE03197F1F70000D3
S11304A0892F9FEF980F8111F6CFE5E6F0E0808168
S11304B08B7F808380818D7F808380818160808336
S11304C026EF2A95F1F780E88BBB86EF8A95F1F742
S11304D080818E7F8083A8E4B1E022C0119681E000
S11304E006C0E6E6FEE03197F1F70000822F2FEF19
S11304F0280F8111F6CFE5E6F0E0808184608083E7
S113050080818D7F808380818160808326EF2A951E
S1130510F1F79BBB86EF8A95F1F780818E7F80830C
S11305209C919111DBCFE5E6F0E080818B7F8083A5
S113053080818D7F808380818160808396EF9A950E
S1130540F1F780EC8BBB26EF2A95F1F780818E7F43
S11305508083AEE2B1E022C0119681E006C0E6E6F7
S1130560FEE03197F1F70000822F2FEF280F811161
S1130570F6CFE5E6F0E080818460808380818D7F22
S1130580808380818160808326EF2A95F1F79BBB6D
S113059086EF8A95F1F780818E7F80839C919111FB
S11305A0DBCF9FEFEFEFF3E29150E040F040E1F753
S11305B000C00000E5E6F0E080818B7F80838081CD
S11305C08D7F808380818160808326EF2A95F1F777
S11305D080EC8BBB86EF8A95F1F780818E7F8083D8
S11305E0A7E3B1E022C0119681E006C0E6E6FEE092
S11305F03197F1F70000822F2FEF280F8111F6CFEA
S1130600E5E6F0E080818460808380818D7F808353
S113061080818160808326EF2A95F1F79BBB86EF6A
S11306208A95F1F780818E7F80839C919111DBCF35
S113063085EA64D285E562D29FEFEFEFF3EB915048
S1130640E040F040E1F700C000000895CF93DF934D
S1130650CDB7DEB764970FB6F894DEBF0FBECDBF3B
S113066085EA4CD281E54AD22FEF8FE392E0215004
S113067080409040E1F700C0000020E010C0822FCD
S1130680022E000C990BFC01ED57FE4F3081EDE07A
S1130690F0E0EC0FFD1FE80FF91F30832F5F2830C7
S11306A074F38D858A3A21F58C89853509F58E8513
S11306B090E0982F88272F85822B24E630E0B9011B
S11306C021D27C876B87888990E0982F8827498975
S11306D0842BB90117D27A8769878A8990E0982F89
S11306E088274B89842BB9010DD278876F8308C082
S11306F081E293E09A87898798878F839C878B8789
S113070086E0FE013796DE01119601900D928A95DE
S1130710E1F729813A814B815C816D817E8180E0A2
S113072090E064960FB6F894DEBF0FBECDBFDF91A4
S1130730CF9108951FBC8FB5826A8FBD8EB58A6133
S11307408EBD8FEF9FE897BD86BD08958FEF87BB61
S113075011BAF0CF08951F920F920FB60F92112481
S113076000000F900FBE0F901F901895CF93DF934A
S1130770CDB7DEB7A6970FB6F894DEBF0FBECDBFD8
S11307808FEF8ABBE4E6F0E0808187608083E5E652
S1130790F0E080818B7F808380818D7F8083808166
S11307A08160808386EF8A95F1F788E38BBB96EFAF
S11307B09A95F1F780818E7F808384E006C0E6E617
S11307C0FEE03197F1F70000892F9FEF980F811118
S11307D0F6CFE5E6F0E080818B7F808380818D7F9A
S11307E0808380818160808386EF8A95F1F788E336
S11307F08BBB96EF9A95F1F780818E7F808384E09E
S113080006C0E6E6FEE03197F1F70000892F9FEF7E
S1130810980F8111F6CFE5E6F0E080818B7F80832D
S113082080818D7F808380818160808386EF8A953B
S1130830F1F788E38BBB96EF9A95F1F780818E7F71
S1130840808384E006C0E6E6FEE03197F1F700001D
S1130850892F9FEF980F8111F6CFE5E6F0E08081B4
S11308608B7F808380818D7F808380818160808382
S113087086EF8A95F1F78EE08BBB96EF9A95F1F7A8
S113088080818E7F808382E006C0E6E6FEE03197B9
S1130890F1F70000892F9FEF980F8111F6CFE5E65D
S11308A0F0E080818B7F808380818D7F8083808155
S11308B08160808386EF8A95F1F786E08BBB96EFA3
S11308C09A95F1F780818E7F808382E006C0E6E608
S11308D0FEE03197F1F70000892F9FEF980F811107
S11308E0F6CFE5E6F0E080818B7F808380818D7F89
S11308F0808380818160808386EF8A95F1F781E02F
S11309008BBB96EF9A95F1F780818E7F808382E08E
S113091006C0E6E6FEE03197F1F70000892F9FEF6D
S1130920980F8111F6CF03DC11DF789411BA8EDEB3
S113093029833A834B835C836D837E83E5E6F0E011
S113094080818B7F808380818D7F808380818160A3
S1130950808386EF8A95F1F781E08BBB96EF9A95B9
S1130960F1F780818E7F808382E006C0E6E6FEE0B8
S11309703197F1F70000892F9FEF980F8111F6CF7F
S1130980E5E6F0E080818B7F808380818D7F8083AA
S113099080818160808386EF8A95F1F780E88BBB44
S11309A096EF9A95F1F780818E7F80838C818F9367
S11309B08B818F938E818F938D818F938CE691E0C1
S11309C09F938F938E01095F1F4F1F930F93C1D085
S11309D00FB6F894DEBF0FBECDBFD80122C011966A
S11309E081E006C0E6E6FEE03197F1F70000822FD1
S11309F02FEF280F8111F6CFE5E6F0E080818460C7
S1130A00808380818D7F808380818160808386EF75
S1130A108A95F1F79BBB96EF9A95F1F780818E7FCB
S1130A2080839C919111DBCFE5E6F0E080818B7FA0
S1130A30808380818D7F808380818160808386EF45
S1130A408A95F1F780EC8BBB96EF9A95F1F780814C
S1130A508E7F80838A818F9389818F938AE791E047
S1130A609F938F938E01095F1F4F1F930F9371D034
S1130A700F900F900F900F900F900F90D80122C0FD
S1130A80119681E006C0E6E6FEE03197F1F700003A
S1130A90822F2FEF280F8111F6CFE5E6F0E0808159
S1130AA08460808380818D7F808380818160808366
S1130AB086EF8A95F1F79BBB96EF9A95F1F78081C3
S1130AC08E7F80839C919111DBCF84E690E006C0F9
S1130AD0E6E6FEE03197F1F70000C9019C012150E0
S1130AE03109892BA9F723CF1092900087E089B9A7
S1130AF088E98AB986E08093950008955D9BFECFCE
S1130B008CB9089597FB072E16F4009406D077FD50
S1130B1008D00BD007FC05D03EF4909581959F4FEB
S1130B200895709561957F4F0895AA1BBB1B51E1F1
S1130B3007C0AA1FBB1FA617B70710F0A61BB70B49
S1130B40881F991F5A95A9F780959095BC01CD01EE
S1130B5008950F931F93CF93DF93CDB7DEB72E97EE
S1130B600FB6F894DEBF0FBECDBF0D891E8986E097
S1130B708C831A8309838FEF9FE79E838D83AE0155
S1130B80475E5F4F6F89788DCE01019610D0EF815B
S1130B90F885E00FF11F10822E960FB6F894DEBF91
S1130BA00FBECDBFDF91CF911F910F9108952F926A
S1130BB03F924F925F926F927F928F929F92AF92E9
S1130BC0BF92CF92DF92EF92FF920F931F93CF9336
S1130BD0DF93CDB7DEB72B970FB6F894DEBF0FBE09
S1130BE0CDBF6C017B018A01FC01178216828381CF
S1130BF081FFBFC1CE0101963C01F6019381F7014B
S1130C0093FD859193FF81917F01882309F4ADC100
S1130C10853239F493FD859193FF81917F0185326B
S1130C2021F4B60190E0D6D1E8CF912C212C312CBF
S1130C30FFE1F315D8F08B3279F038F4803279F093
S1130C408332A1F4232D20611DC08D3261F08033E5
S1130C5069F4232D216016C0832D8260382EE32D84
S1130C60E4603E2E2AC0F32DF8601DC037FC2DC071
S1130C7020ED280F2A3040F08E32B9F436FC75C1CD
S1130C80232D2064322E19C036FE06C08AE0989EB9
S1130C90200D1124922E11C0EAE02E9E200D112465
S1130CA0222EF32DF0623F2E08C08C3621F4832DC2
S1130CB08068382E02C0883641F4F70193FD85918F
S1130CC093FF81917F018111B3CF982F9F7D95541C
S1130CD0933028F40C5F1F4F9FE399830DC0833634
S1130CE031F0833771F0833509F055C020C0F80125
S1130CF0808189830E5F1F4F88248394912C530134
S1130D0012C02801F2E04F0E511CF801A080B180FE
S1130D1036FE03C0692D70E002C06FEF7FEFC5019E
S1130D204ED14C018201F32DFF773F2E15C02801CF
S1130D3022E0420E511CF801A080B18036FE03C0AF
S1130D40692D70E002C06FEF7FEFC5012DD14C011A
S1130D50F32DF0683F2E820133FC19C0822D90E000
S1130D6088169906A0F4B60180E290E033D12A9463
S1130D70F5CFF50137FC859137FE81915F01B6010E
S1130D8090E028D121102A9421E0821A910881143C
S1130D90910479F7E1C0843611F0893639F5F80108
S1130DA037FE07C060817181828193810C5F1F4F80
S1130DB008C060817181072E000C880B990B0E5FAF
S1130DC01F4FF32DFF763F2E97FF09C09095809516
S1130DD0709561957F4F8F4F9F4FF0683F2E2AE0AB
S1130DE030E0A30133D1882E861844C0853731F40E
S1130DF0232D2F7EB22E2AE030E025C0932D997F3B
S1130E00B92E8F36C1F018F4883579F0AEC080372A
S1130E1019F0883721F0A9C0E92FE061BE2EB4FE95
S1130E200DC0FB2DF460BF2E09C034FE0AC0292F6B
S1130E302660B22E06C028E030E005C020E130E094
S1130E4002C020E132E0F801B7FE07C06081718181
S1130E50828193810C5F1F4F06C06081718180E0A5
S1130E6090E00E5F1F4FA301F1D0882E8618FB2D52
S1130E70FF773F2E36FE0DC0232D2E7FA22E891420
S1130E8058F434FE0BC032FC09C0832D8E7EA82E8C
S1130E9005C0B82CA32C03C0B82C01C0B92CA4FEE7
S1130EA00FC0FE01E80DF11D8081803321F49A2DDD
S1130EB0997EA92E09C0A2FE06C0B394B39404C0BF
S1130EC08A2D867809F0B394A3FC10C0A0FE06C056
S1130ED0B21480F4280C922C9B180DC0B21458F450
S1130EE0B60180E290E076D0B394F8CFB21418F44F
S1130EF02B1802C0982C212CA4FE0FC0B60180E34D
S1130F0090E068D0A2FE16C0A1FC03C088E790E080
S1130F1002C088E590E0B6010CC08A2D867851F0B5
S1130F20A1FE02C08BE201C080E2A7FC8DE2B60103
S1130F3090E050D0891430F4B60180E390E04AD0B8
S1130F409A94F8CF8A94F301E80DF11D8081B601DB
S1130F5090E040D08110F6CF222009F44ECEB601A5
S1130F6080E290E037D02A94F7CFF601868197810A
S1130F7002C08FEF9FEF2B960FB6F894DEBF0FBE23
S1130F80CDBFDF91CF911F910F91FF90EF90DF9034
S1130F90CF90BF90AF909F908F907F906F905F9015
S1130FA04F903F902F900895FC0105906150704040
S1130FB00110D8F7809590958E0F9F1F0895FC011E
S1130FC06150704001900110D8F7809590958E0F74
S1130FD09F1F08950F931F93CF93DF93FB012381EA
S1130FE021FD03C08FEF9FEF2CC022FF16C0468166
S1130FF05781248135814217530744F4A081B1817C
S11310009D012F5F3F4F318320838C93268137814D
S11310102F5F3F4F3783268314C08B01EC01FB0104
S11310200084F185E02D0995892BE1F6D801169607
S11310308D919C911797019617969C938E93169772
S1131040CE01DF91CF911F910F910895FA01AA2744
S1131050283051F1203181F1E8946F936E7F6E5FF7
S11310607F4F8F4F9F4FAF4FB1E03ED0B4E03CD0A5
S1131070670F781F891F9A1FA11D680F791F8A1F88
S1131080911DA11D6A0F711D811D911DA11D20D0EF
S113109009F468943F912AE0269F11243019305DA9
S11310A03193DEF6CF010895462F4770405D41939A
S11310B0B3E00FD0C9F7F6CF462F4F70405D4A33E7
S11310C018F0495D31FD4052419302D0A9F7EACFAF
S11310D0B4E0A6959795879577956795BA95C9F7DE
S11310E000976105710508959B01AC010A2E0694D1
S11310F05795479537952795BA95C9F7620F731F8A
S10F1100841F951FA01D0895F894FFCFD4
S113110C436F7272656374696F6E204D6F64650012
S113111C446F6E2774206D6F76652034736563009D
S113112C53657474696E67206C6576656C005761E1
S113113C69742E2E2E2E0043616C6962726174697F
S113114C6E6720347365630053657474696E67202D
S113115C48656164696E6700646567726565312012
S113116C3A0064656772656532203A00593A202565
S113117C336420503A2025336400523A20253364DA
S105118C00005D
S9030000FC
