:100000007AC0000096C0000094C0000092C00000BA
:1000100090C000008EC000008CC000008AC00000AC
:1000200088C0000086C0000084C0000082C00000BC
:10003000E1C000007EC000007CC000007AC000006B
:1000400078C0000076C0000074C0000072C00000DC
:1000500070C000006EC000006CC000006AC00000EC
:1000600068C0000066C00000D0C0000062C0000090
:1000700060C000005EC000005CC000005AC000000C
:1000800058C0000056C0000054C00000036EDB36AC
:100090003D9A9999993DABAAAA2A3E000000803F5B
:1000A000084AD73B3BCE016E84BCBFFDC12F3D6CDF
:1000B00074319ABD56833DDA3D00C77F11BED9E445
:1000C000BB4C3E916BAAAABE000000803F072C7A71
:1000D000A5BA6CC590DA3B9365FC8BBC53F810FD58
:1000E0003C5692834DBD879D3AB63DCBC9BF5BBEA2
:1000F00073DA0FC93F0011241FBECFEFD0E1DEBF7E
:10010000CDBF11E0A0E0B1E0EAE9F2E300E00BBF0F
:1001100002C007900D92AA37B107D9F721E0AAE7EC
:10012000B1E001C01D92AB3BB207E1F7CFD40C9414
:100130004B1966CF81E487B987EA86B986B18064B6
:1001400086B90895349BFECF24B185B190E0982FF5
:100150008827822B0895F6DFBC0180E090E00E94A2
:10016000531420E030E040EA50E40E94A11520E062
:1001700030E040E85AE30E94A1159B01AC0160E029
:1001800070E088E492E40C94BA130895E5E6F0E098
:1001900080818B7F808380818D7F8083808181605F
:1001A000808386EF8A95F1F781E08BBB86EF8A9595
:1001B000F1F780818E7F808382E006C0E6E6FEE074
:1001C0003197F1F70000892F9FEF980F8111F6CF3B
:1001D00008951FBC8FB5826A8FBD8EB58A618EBDB2
:1001E0008FEF9FE897BD86BD08958FEF87BB11BA4B
:1001F000F0CF08951F920F920FB60F9211240000B6
:100200000F900FBE0F901F9018951F920F920FB670
:100210000F9211240BB60F922F923F924F925F9242
:100220006F927F928F929F92AF92BF92CF92DF9206
:10023000EF92FF920F931F932F933F934F935F93F0
:100240006F937F938F939F93AF93BF93EF93FF939E
:10025000CF93DF9300D000D0CDB7DEB787E891E031
:100260000E94FC0CE7E8F1E060817181072E000C30
:10027000880B990B0E94551420E030E040E059E3D0
:100280000E94A1154B015C016091890170918A0166
:10029000072E000C880B990B0E94551420E030E0CB
:1002A00040E059E30E94A115C62E272E382E192FA3
:1002B00060918B0170918C01072E000C880B990BBB
:1002C0000E94551420E030E040E059E30E94A1155F
:1002D000062FF72EE82ED92E60918D0170918E0198
:1002E000072E000C880B990B0E94551420E030E07B
:1002F00043E053E40E94BA1325E33AEF4EE85CE38F
:100300000E94A11569837A838B839C8360918F01FE
:1003100070919001072E000C880B990B0E945514C8
:1003200020E030E043E053E40E94BA1325E33AEFC3
:100330004EE85CE30E94A1152B013C016091910104
:1003400070919201072E000C880B990B0E94551496
:1003500020E030E043E053E40E94BA1325E33AEF93
:100360004EE85CE30E94A115DF92EF92FF920F939B
:100370001F933F922F92CF926B017C0193018201D8
:1003800049815A816B817C8187E991E00E94BA0E94
:1003900060919B0170919C0180919D0190919E01C3
:1003A00020919B0130919C0140919D0150919E01B3
:1003B0000E94A1156B017C0160919F017091A001C9
:1003C0008091A1019091A20120919F013091A00103
:1003D0004091A1015091A2010E94A1159B01AC0185
:1003E000C701B6010E94C6129B01AC010E94C61251
:1003F0009B01AC0160E070E080E89FE30E94C512C1
:100400006B017C01E7E9F1E0608171818281938178
:1004100020919B0130919C0140919D0150919E0142
:100420000E94A1154B015C0160919F017091A00198
:100430008091A1019091A2012091A3013091A4018A
:100440004091A5015091A6010E94A1159B01AC010C
:10045000C501B4010E94C6129B01AC010E94C612E4
:10046000A70196010E94501320EE3EE245E652E4B9
:100470000E94A1156093AB017093AC018093AD0114
:100480009093AE01E7E9F1E060817181828193810F
:1004900020919F013091A0014091A1015091A201B2
:1004A0000E94A1156B017C016091A3017091A401D0
:1004B0008091A5019091A60120919B0130919C0112
:1004C00040919D0150919E010E94A1159B01AC019C
:1004D000C701B6010E94C5129B01AC010E94C61261
:1004E0000E942A1320EE3EE245E652E40E94A11546
:1004F000609393017093940180939501909396017A
:1005000060919F017091A0018091A1019091A20141
:1005100020919F013091A0014091A1015091A20131
:100520000E94A1156B017C016091A3017091A4014F
:100530008091A5019091A6012091A3013091A40181
:100540004091A5015091A6010E94A1159B01AC010B
:10055000C701B6010E94C6129B01AC010E94C612DF
:100560009B01AC0160E070E080E89FE30E94C5124F
:100570006B017C01E7E9F1E0608171818281938107
:100580002091A3013091A4014091A5015091A601B1
:100590000E94A1154B015C0160919B0170919C012F
:1005A00080919D0190919E0120919F013091A00129
:1005B0004091A1015091A2010E94A1159B01AC01A3
:1005C000C501B4010E94C6129B01AC010E94C61273
:1005D000A70196010E94501320EE3EE245E652E448
:1005E0000E94A1156093B3017093B4018093B5018B
:1005F0009093B60181E080937A010FB6F894DEBF44
:100600000FBECDBF0F900F900F900F90DF91CF9145
:10061000FF91EF91BF91AF919F918F917F916F91DA
:100620005F914F913F912F911F910F91FF90EF900C
:10063000DF90CF90BF90AF909F908F907F906F9002
:100640005F904F903F902F900F900BBE0F900FBE7A
:100650000F901F901895CF93DF93CDB7DEB76497B7
:100660000FB6F894DEBF0FBECDBF85E184BB15BACF
:100670008FEF8ABBE4E6F0E0808187608083E5E667
:10068000F0E080818B7F808380818D7F808380817B
:100690008160808386EF8A95F1F788E38BBB96EFC4
:1006A0009A95F1F780818E7F808384E006C0E6E62C
:1006B000FEE03197F1F70000892F9FEF980F81112D
:1006C000F6CFE5E6F0E080818B7F808380818D7FAF
:1006D000808380818160808386EF8A95F1F788E34B
:1006E0008BBB96EF9A95F1F780818E7F808384E0B3
:1006F00006C0E6E6FEE03197F1F70000892F9FEF94
:10070000980F8111F6CFE5E6F0E080818B7F808342
:1007100080818D7F808380818160808386EF8A9550
:10072000F1F788E38BBB96EF9A95F1F780818E7F86
:10073000808384E006C0E6E6FEE03197F1F7000032
:10074000892F9FEF980F8111F6CFE5E6F0E08081C9
:100750008B7F808380818D7F808380818160808397
:1007600086EF8A95F1F78EE08BBB96EF9A95F1F7BD
:1007700080818E7F808382E006C0E6E6FEE03197CE
:10078000F1F70000892F9FEF980F8111F6CFE5E672
:10079000F0E080818B7F808380818D7F808380816A
:1007A0008160808386EF8A95F1F786E08BBB96EFB8
:1007B0009A95F1F780818E7F808382E006C0E6E61D
:1007C000FEE03197F1F70000892F9FEF980F81111C
:1007D000F6CFE5E6F0E080818B7F808380818D7F9E
:1007E000808380818160808386EF8A95F1F781E044
:1007F0008BBB96EF9A95F1F780818E7F808382E0A4
:1008000006C0E6E6FEE03197F1F70000892F9FEF82
:10081000980F8111F6CF4AD58DDCF0D381119CC0A1
:10082000E5E6F0E080818B7F808380818D7F80830F
:1008300080818160808386EF8A95F1F781E08BBBB0
:1008400096EF9A95F1F780818E7F808382E006C0D3
:10085000E6E6FEE03197F1F70000892F9FEF980F51
:100860008111F6CFE5E6F0E080818B7F8083808187
:100870008D7F808380818160808386EF8A95F1F708
:1008800080E88BBB96EF9A95F1F780818E7F80830D
:10089000A8E1B1E022C0119681E006C0E6E6FEE0E4
:1008A0003197F1F70000822F2FEF280F8111F6CF3B
:1008B000E5E6F0E080818460808380818D7F8083A5
:1008C00080818160808386EF8A95F1F79BBB96EFEC
:1008D0009A95F1F780818E7F80839C919111DBCF77
:1008E00088EE93E006C0E6E6FEE03197F1F70000FF
:1008F000C9019C0121503109892BA9F776DCEFEA67
:10090000F1E08AE590E093838283918380838DEC8C
:100910009AE09BBD8ABD6AE570E080E090E00E94AD
:10092000531420E030E044E353E40E94BA1320E083
:1009300030E646E655E40E94A11520E030E846E6A0
:1009400054E40E94C6120E94A3130E94271479BD8A
:1009500068BD85E185BBB1C01F928F938CE291E0A9
:100960009F938F93CE0101969F938F930E94701651
:10097000E5E6F0E080818B7F808380818D7F8083BE
:1009800080818160808386EF8A95F1F781E08BBB5F
:1009900096EF9A95F1F780818E7F80830F900F906C
:1009A0000F900F900F900F9082E006C0E6E6FEE0F9
:1009B0003197F1F70000892F9FEF980F8111F6CF43
:1009C000E5E6F0E080818B7F808380818D7F80836E
:1009D00080818160808386EF8A95F1F780E88BBB08
:1009E00096EF9A95F1F780818E7F8083DE011196D4
:1009F00022C0119681E006C0E6E6FEE03197F1F7ED
:100A00000000822F2FEF280F8111F6CFE5E6F0E0EE
:100A100080818460808380818D7F808380818160FC
:100A2000808386EF8A95F1F79BBB96EF9A95F1F755
:100A300080818E7F80839C919111DBCFE5E6F0E091
:100A400080818B7F808380818D7F808380818160A6
:100A5000808386EF8A95F1F780EC8BBB96EF9A95B1
:100A6000F1F780818E7F8083ADE1B1E022C01196E5
:100A700081E006C0E6E6FEE03197F1F70000822F44
:100A80002FEF280F8111F6CFE5E6F0E0808184603A
:100A9000808380818D7F808380818160808386EFE9
:100AA0008A95F1F79BBB96EF9A95F1F780818E7F3F
:100AB00080839C919111DBCFFFCF64960FB6F894A1
:100AC000DEBF0FBECDBFDF91CF910895CF93DF93EF
:100AD000CDB7DEB7A6970FB6F894DEBF0FBECDBF79
:100AE000F894B9DD789452DB1092B7011092B801F6
:100AF0001092B9011092BA011092A7011092A801A8
:100B00001092A9011092AA01212C312C80917A0116
:100B10008823E1F310927A0125E02216310491F442
:100B20008091B3019091B401A091B501B091B6014B
:100B30008093A7019093A801A093A901B093AA0163
:100B4000212C312CF8946091B3017091B401809103
:100B5000B5019091B6010E9422147F936F9360912A
:100B600093017091940180919501909196010E945A
:100B700022147F936F936091B7017091B8018091B7
:100B8000B9019091BA010E9422147F936F9384E37C
:100B900091E09F938F93CE0101969F938F930E9434
:100BA0007016E5E6F0E080818B7F808380818D7F09
:100BB000808380818160808336EF3A95F1F781E010
:100BC0008BBB86EF8A95F1F780818E7F80830FB68D
:100BD000F894DEBF0FBECDBF82E006C0E6E6FEE0C1
:100BE0003197F1F70000892F9FEF980F8111F6CF11
:100BF000E5E6F0E080818B7F808380818D7F80833C
:100C000080818160808326EF2A95F1F780E88BBB95
:100C100036EF3A95F1F780818E7F8083DE01119661
:100C200022C0119681E006C0E6E6FEE03197F1F7BA
:100C30000000822F2FEF280F8111F6CFE5E6F0E0BC
:100C400080818460808380818D7F808380818160CA
:100C5000808326EF2A95F1F79BBB36EF3A95F1F7A3
:100C600080818E7F80839C919111DBCF4090A70182
:100C70005090A8016090A9017090AA018091B301E1
:100C80009091B401A091B501B091B6018BA39CA342
:100C9000ADA3BEA32091B7013091B8014091B90135
:100CA0005091BA01609193017091940180919501E6
:100CB00090919601EFEAF1E0C280D3807601A081A5
:100CC000B181BAA3A9A38D010E94C5124B015C0199
:100CD0009F7720E030E040E050E40E94B613882384
:100CE000DCF0C501B4010E9404160E9422146C0DB0
:100CF0007D1D6B3571052CF06A3A710544F46B016A
:100D00000BC00F2EFAE5CF2ED12CF02D05C00F2EE3
:100D1000FAEACF2ED12CF02DA30192016BA17CA178
:100D20008DA19EA10E94C5124B015C019F7720E01E
:100D300030E040E05FE30E94B61388231CF4A9A0D2
:100D4000BAA09CC0A5019401C501B4010E94C612BD
:100D50000E9404160E942214E9A1FAA16E0F7F1FBF
:100D6000673971052CF46E31710544F05B0186C062
:100D70000F2EF6E9AF2EB12CF02D80C00F2EFEE124
:100D8000AF2EB12CF02D7AC08217930738F4F2E021
:100D9000EF0EF11CCE14DF045CF00DC0CE14DF04A6
:100DA00054F422E0E21AF108EC14FD041CF003C034
:100DB000760101C076010A151B0534F40E5F1F4F42
:100DC000A016B10654F00CC0A016B1064CF40250A7
:100DD00011090A151B051CF003C0850101C085011E
:100DE000B70180E090E00E94531420E030E044E33B
:100DF00053E40E94BA1320E030E646E655E40E9430
:100E0000A11520E030E846E654E40E94C6120E9494
:100E1000A3130E94271479BD68BDB80180E090E05B
:100E20000E94531420E030E044E353E40E94BA13DC
:100E300020E030E646E655E40E94A11520E030E8C7
:100E400046E654E40E94C6120E94A3130E9427148F
:100E50007BBD6ABDEFEAF1E0F382E2821183008399
:100E600081E090E006C086E69EE00197F1F7000081
:100E7000C9019C0121503109892BA9F78091B10149
:100E80009091B20196018C159D0509F07DCF40919E
:100E9000AF015091B0014A155B0509F075CF84E1AF
:100EA00090E006C0A6E6BEE01197F1F70000C90188
:100EB0009C0121503109892BA9F74DD90E94271493
:100EC0006B017C01FF92EF92DF926F9383E491E0DC
:100ED0009F938F93CE0101969F938F930E947016DC
:100EE0000FB6F894DEBF0FBECDBFF2E3CF16D1042C
:100EF000E104F10420F485B38F7E85BB03C085B384
:100F0000806185BB8091B1019091B2018B559109AF
:100F10008F34910520F085B38E7F85BB03C085B3E8
:100F2000816085BB8091AF019091B0014F97873769
:100F3000910520F085B38B7F85BB03C085B38460AA
:100F400085BBE5E6F0E080818B7F808380818D7FAB
:100F5000808380818160808326EF2A95F1F780EC81
:100F60008BBB36EF3A95F1F780818E7F8083DE016F
:100F7000119622C0119681E006C0E6E6FEE03197A8
:100F8000F1F70000822F2FEF280F8111F6CFE5E651
:100F9000F0E080818460808380818D7F8083808188
:100FA0008160808326EF2A95F1F79BBB36EF3A9557
:100FB000F1F780818E7F80839C919111DBCF7894B3
:100FC0008FEF281A380A9FEFAFE3B2E09150A040AC
:100FD000B040E1F700C0000099CD10928B008BE08B
:100FE00080938A008FEF98E090938700809386002B
:100FF000EDE7F0E080818061808308950F931F9377
:10100000CF93DF93CDB7DEB760970FB6F894DEBF0E
:101010000FBECDBF84EA8093740080E090E007C0EB
:101020009C012F5F3F4F8131974260F4C9012091AD
:1010300074002223ACF780917100887F883021F002
:1010400012E003C011E001C010E0111198C080ED62
:101050008093730084E88093740080E090E007C080
:101060009C012F5F3F4F8131974260F4C90120916D
:1010700074002223ACF780917100887F883119F0C9
:1010800012E001C011E011117CC085E7809373006C
:1010900084E88093740080E090E007C09C012F5F9B
:1010A0003F4F8131974260F4C9012091740022239F
:1010B000ACF780917100887F883219F012E001C08E
:1010C00011E0111160C084EA8093740080E090E028
:1010D00007C09C012F5F3F4F8131974260F4C901E7
:1010E000209174002223ACF780917100887F8031B9
:1010F00019F012E001C011E0111147C081ED809399
:10110000730084E88093740080E090E007C09C0145
:101110002F5F3F4F8131974260F4C90120917400E5
:101120002223ACF780917100887F803419F012E09F
:1011300001C011E011112BC084E88093740080E09D
:1011400090E007C09C012F5F3F4F8131974260F4D0
:10115000C901209174002223ACF780917100887F2F
:10116000883519F012E001C011E0111102C00091A0
:10117000730011110EC084E9809374000BC000E06D
:1011800009C000E007C000E005C000E003C000E0C7
:1011900001C000E011117EC01F920F938FE491E017
:1011A0009F938F93CE0101969F938F930E94701609
:1011B000E5E6F0E080818B7F808380818D7F808376
:1011C00080818160808326EF2A95F1F781E08BBBD7
:1011D00046EF4A95F1F780818E7F80830F900F90C4
:1011E0000F900F900F900F9082E006C0E6E6FEE0B1
:1011F0003197F1F70000892F9FEF980F8111F6CFFB
:10120000E5E6F0E080818B7F808380818D7F808325
:1012100080818160808326EF2A95F1F780E88BBB7F
:1012200046EF4A95F1F780818E7F8083DE0111962B
:1012300022C0119681E006C0E6E6FEE03197F1F7A4
:101240000000822F2FEF280F8111F6CFE5E6F0E0A6
:1012500080818460808380818D7F808380818160B4
:10126000808326EF2A95F1F79BBB46EF4A95F1F76D
:1012700080818E7F80839C919111DBCF8FEF9FEFD8
:10128000E1E181509040E040E1F700C00000083605
:1012900009F017E3812F60960FB6F894DEBF0FBEFA
:1012A000CDBFDF91CF911F910F91089596DE1092DF
:1012B00071008FE780937000E4E7F0E084E08083C2
:1012C0002FEF4FE754E0215040405040E1F700C07D
:1012D000000084EA808380E090E007C09C012F5FDB
:1012E0003F4F8131974260F4C9012091740022235D
:1012F000ACF780917100887F883021F042E003C014
:1013000041E001C040E041115DC080ED8093730079
:1013100084E88093740080E090E007C09C012F5F18
:101320003F4F8131974260F4C9012091740022231C
:10133000ACF780917100887F883119F042E001C0DC
:1013400041E041113FC08BE68093730084E88093B5
:10135000740080E090E007C09C012F5F3F4F813117
:10136000974260F4C901209174002223ACF7809168
:101370007100887F883219F042E001C041E04111DC
:1013800021C080E88093730084E88093740080E03B
:1013900090E007C09C012F5F3F4F8131974260F47E
:1013A000C901209174002223ACF780917100887FDD
:1013B000883219F042E001C041E0411103C084E9E4
:1013C000809374008FEF9FE724E08150904020408D
:1013D000E1F700C0000084EA8093740080E090E0B0
:1013E00007C09C012F5F3F4F8131974260F4C901D4
:1013F000209174002223ACF780917100887F88309F
:1014000021F042E003C041E001C040E041115DC075
:1014100080ED8093730084E88093740080E090E016
:1014200007C09C012F5F3F4F8131974260F4C90193
:10143000209174002223ACF780917100887F88315D
:1014400019F042E001C041E041113FC089E18093C1
:10145000730084E88093740080E090E007C09C01F2
:101460002F5F3F4F8131974260F4C9012091740092
:101470002223ACF780917100887F883219F042E016
:1014800001C041E0411121C089E08093730084E8EC
:101490008093740080E090E007C09C012F5F3F4F75
:1014A0008131974260F4C901209174002223ACF786
:1014B00080917100887F883219F042E001C041E0DC
:1014C000411103C084E9809374008FEF9FE724E00B
:1014D000815090402040E1F700C0000084EA8093F2
:1014E000740080E090E007C09C012F5F3F4F813186
:1014F000974260F4C901209174002223ACF78091D7
:101500007100887F883021F042E003C041E001C0D3
:1015100040E041115DC080ED8093730084E88093CA
:10152000740080E090E007C09C012F5F3F4F813145
:10153000974260F4C901209174002223ACF7809196
:101540007100887F883119F042E001C041E041110B
:101550003FC08AE18093730084E88093740080E048
:1015600090E007C09C012F5F3F4F8131974260F4AC
:10157000C901209174002223ACF780917100887F0B
:10158000883219F042E001C041E0411121C082E0FF
:101590008093730084E88093740080E090E007C03B
:1015A0009C012F5F3F4F8131974260F4C901209128
:1015B00074002223ACF780917100887F883219F083
:1015C00042E001C041E0411103C084E9809374000E
:1015D0008FEF9FE724E0815090402040E1F700C06A
:1015E000000084EA8093740080E090E007C09C01D2
:1015F0002F5F3F4F8131974260F4C9012091740001
:101600002223ACF780917100887F883021F042E07E
:1016100003C041E001C040E041115CC080ED809317
:10162000730084E88093740080E090E007C09C0120
:101630002F5F3F4F8131974260F4C90120917400C0
:101640002223ACF780917100887F883119F042E045
:1016500001C041E041113EC08BE18093730084E8FA
:101660008093740080E090E007C09C012F5F3F4FA3
:101670008131974260F4C901209174002223ACF7B4
:1016800080917100887F883219F042E001C041E00A
:10169000411120C01092730084E88093740080E0B0
:1016A00090E007C09C012F5F3F4F8131974260F46B
:1016B000C901209174002223ACF780917100887FCA
:1016C000883219F042E001C041E0411103C084E9D1
:1016D000809374008FEF9FE724E08150904020407A
:1016E000E1F700C0000084EA8093740080E090E09D
:1016F00007C09C012F5F3F4F8131974260F4C901C1
:10170000209174002223ACF780917100887F88308B
:1017100021F042E003C041E001C040E041115DC062
:1017200080ED8093730084E88093740080E090E003
:1017300007C09C012F5F3F4F8131974260F4C90180
:10174000209174002223ACF780917100887F88314A
:1017500019F042E001C041E041113FC08CE18093AB
:10176000730084E88093740080E090E007C09C01DF
:101770002F5F3F4F8131974260F4C901209174007F
:101780002223ACF780917100887F883219F042E003
:1017900001C041E0411121C088E08093730084E8DA
:1017A0008093740080E090E007C09C012F5F3F4F62
:1017B0008131974260F4C901209174002223ACF773
:1017C00080917100887F883219F042E001C041E0C9
:1017D000411103C084E9809374008FEF9FE724E0F8
:1017E000815090402040E1F700C0000084EA8093DF
:1017F000740080E090E007C09C012F5F3F4F813173
:10180000974260F4C901209174002223ACF78091C3
:101810007100887F883021F042E003C041E001C0C0
:1018200040E041115DC080ED8093730084E88093B7
:10183000740080E090E007C09C012F5F3F4F813132
:10184000974260F4C901209174002223ACF7809183
:101850007100887F883119F042E001C041E04111F8
:101860003FC08BE68093730084E88093740080E02F
:1018700090E007C09C012F5F3F4F8131974260F499
:10188000C901209174002223ACF780917100887FF8
:10189000883219F042E001C041E0411121C08BE0E3
:1018A0008093730084E88093740080E090E007C028
:1018B0009C012F5F3F4F8131974260F4C901209115
:1018C00074002223ACF780917100887F883219F070
:1018D00042E001C041E0411103C084E980937400FB
:1018E0008FEF9FE724E0815090402040E1F700C057
:1018F000000084EA8093740080E090E007C09C01BF
:101900002F5F3F4F8131974260F4C90120917400ED
:101910002223ACF780917100887F883021F042E06B
:1019200003C041E001C040E041115CC080ED809304
:10193000730084E88093740080E090E007C09C010D
:101940002F5F3F4F8131974260F4C90120917400AD
:101950002223ACF780917100887F883119F042E032
:1019600001C041E041113EC08CE68093730084E8E1
:101970008093740080E090E007C09C012F5F3F4F90
:101980008131974260F4C901209174002223ACF7A1
:1019900080917100887F883219F042E001C041E0F7
:1019A000411120C01092730084E88093740080E09D
:1019B00090E007C09C012F5F3F4F8131974260F458
:1019C000C901209174002223ACF780917100887FB7
:1019D000883219F042E001C041E0411103C084E9BE
:1019E000809374008FEF9FE724E081509040204067
:1019F000E1F700C0000008950F931F93CF93DF938A
:101A0000CDB7DEB76E970FB6F894DEBF0FBECDBF71
:101A10008C0184EA8093740080E090E007C09C0110
:101A20002F5F3F4F8131974238F4C90120917400F4
:101A30002223ACF78091710080ED8093730084E8DD
:101A40008093740080E090E007C09C012F5F3F4FBF
:101A50008131974238F4C901209174002223ACF7F8
:101A6000809171008BE38093730084E8809374000D
:101A700080E090E007C09C012F5F3F4F813197428B
:101A800038F4C901209174002223ACF780917100D1
:101A900084EA8093740080E090E007C09C012F5F8F
:101AA0003F4F8131974238F4C901209174002223BD
:101AB000ACF78091710081ED8093730084E880938E
:101AC000740080E090E008C09C012F5F3F4F81319F
:101AD000974208F0ACC0C901209174002223A4F7FA
:101AE0008091710040E0A4C0642F70E084EC80938A
:101AF000740080E090E007C09C012F5F3F4F813170
:101B0000974260F4C901209174002223ACF78091C0
:101B10007100887F803521F082E003C081E001C040
:101B200080E0811109C090917300E1E0F0E0EC0FDA
:101B3000FD1FE60FF71F9083882309F476C094E910
:101B4000909374001F928F938DE591E09F938F93F4
:101B5000CE0140969F938F930E947016E5E6F0E0C9
:101B600080818B7F808380818D7F80838081816075
:101B7000808386EF8A95F1F781E08BBB46EF4A952B
:101B8000F1F780818E7F80830F900F900F900F90E0
:101B90000F900F9082E006C0E6E6FEE03197F1F785
:101BA0000000892F9FEF980F8111F6CFE5E6F0E056
:101BB00080818B7F808380818D7F80838081816025
:101BC000808346EF4A95F1F780E88BBB56EF5A9534
:101BD000F1F780818E7F8083DE01509622C01196BE
:101BE00081E006C0E6E6FEE03197F1F70000822FC3
:101BF0002FEF280F8111F6CFE5E6F0E080818460B9
:101C0000808380818D7F808380818160808346EFA7
:101C10004A95F1F79BBB56EF5A95F1F780818E7F7D
:101C200080839C919111DBCF06C04F5F01C040E0E3
:101C30004D3008F459CF84E88093740080E090E040
:101C400007C09C012F5F3F4F8131974260F4C9016B
:101C5000209174002223ACF780917100887F883531
:101C600021F082E003C081E001C080E0811103C067
:101C7000809173008E8784E980937400898190E05D
:101C8000982F88272A81822BF801918380838B816A
:101C900090E0982F88272C81822B938382838D81DB
:101CA00090E0982F88272E81822B958384838985C5
:101CB00090E0982F88272A85822B978386838B85AF
:101CC00090E0982F88272C85822B918780878D859F
:101CD00090E0982F88272E85822B938782876E9697
:101CE0000FB6F894DEBF0FBECDBFDF91CF911F912D
:101CF0000F9108958F929F92AF92BF92CF92DF92F1
:101D0000EF92FF926B017C0120E030E040E05FE366
:101D100018D746015701B594A794979487940F2E2E
:101D2000FFEDCF2EF9E5DF2EF7E3EF2EFFE5FF2ED7
:101D3000F02DC818D908EA08FB08A701960101D7B9
:101D40009B01AC01C701B601FCD69B01AC0160E070
:101D500070E080EC9FE319D49B01AC01C701B60190
:101D6000F0D6FF90EF90DF90CF90BF90AF909F9014
:101D70008F9008952F923F924F925F926F927F9231
:101D80008F929F92AF92BF92CF92DF92EF92FF928B
:101D90000F931F93CF93DF93CDB7DEB76C970FB63A
:101DA000F894DEBF0FBECDBF1C0149875A876B87F1
:101DB0007C870D871E872F87388B20E030E0A901B4
:101DC000C501B401D3D4811115C020E030E0A901D0
:101DD00069A97AA98BA99CA9C9D481110BC020E05B
:101DE00030E0A9016DA97EA98FA998ADBFD4882341
:101DF00009F4FAC1A5019401C501B401A2D62B01D1
:101E00003C0129A93AA94BA95CA9CA01B90199D6F3
:101E10009B01AC01C301B201B9D32B013C012DA937
:101E20003EA94FA958ADCA01B9018BD69B01AC019F
:101E3000C301B201ABD35EDF2B013C019B01AC01BE
:101E4000C501B4017ED6698B7A8B8B8B9C8BA301E9
:101E5000920169A97AA98BA99CA973D669837A830F
:101E60008B839C83A30192016DA97EA98FA998AD54
:101E700068D62B013C0100E011E0D80114966D9169
:101E80007D918D919C9117971C962D913D914D912F
:101E90005C911F9756D64B015C01F80160817181FE
:101EA0008281938120853185428553854AD69B0165
:101EB000AC01C501B40169D36D837E838F8398879C
:101EC000D8016D917D918D919C91139714962D91D0
:101ED0003D914D915C91179734D64B015C01F8010F
:101EE00060857185828593852485358546855785EE
:101EF00028D69B01AC01C501B40148D36D8B7E8B04
:101F00008F8B988FD8016D917D918D919C911397B6
:101F10002D913D914D915C9114D620E030E040E050
:101F20005FE333D34B015C01F801648575858685D9
:101F30009785248535854685578503D69B01AC0159
:101F4000C501B40123D3698F7A8F8B8F9C8F9B013E
:101F5000AC0169817A818B819C81F3D54B015C0155
:101F60002D893E894F89588DC301B201EAD59B0165
:101F7000AC01C501B40109D34B015C012D813E8147
:101F80004F815885C301B201DCD52B013C01298D5D
:101F90003A8D4B8D5C8D69897A898B899C89D1D5E5
:101FA0009B01AC01C301B201F0D22B013C012D8990
:101FB0003E894F89588D69897A898B899C89C1D5D9
:101FC000698B7A8B8B8B9C8B2D813E814F815885C1
:101FD00069817A818B819C81B4D59B01AC0169892F
:101FE0007A898B899C89D1D269837A838B839C83FC
:101FF0006091100170911101809112019091130173
:1020000020E030E0A90192D518160CF095C020917F
:102010001001309111014091120150911301C5013D
:10202000B4018FD52AE037ED43E25CE38AD52091F5
:102030008301309184014091850150918601A6D29F
:10204000609383017093840180938501909386014E
:102050002091100130911101409112015091130112
:10206000C301B2016ED52AE037ED43E25CE369D5E6
:1020700020917F0130918001409181015091820136
:1020800085D260937F01709380018093810190934A
:102090008201209110013091110140911201509163
:1020A000130169817A818B819C814BD52AE037EDC0
:1020B00043E25CE346D520917B0130917C01409165
:1020C0007D0150917E0162D260937B0170937C010F
:1020D00080937D0190937E01209183013091840152
:1020E000409185015091860169857A858B859C8513
:1020F0004DD269877A878B879C8720917F013091A9
:10210000800140918101509182016D857E858F858E
:1021100098893CD26D877E878F87988B20917B0131
:1021200030917C0140917D0150917E01C701B60143
:102130002DD26B017C0118C0109283011092840192
:10214000109285011092860110927F0110928001F9
:10215000109281011092820110927B0110927C01F9
:1021600010927D0110927E01209114013091150191
:102170004091160150911701C501B401E2D49B01B1
:10218000AC0169857A858B859C8500D269877A87C1
:102190008B879C8720911401309115014091160185
:1021A00050911701C301B201CCD49B01AC016D85E4
:1021B0007E858F859889EAD16D877E878F87988BFA
:1021C0002091140130911501409116015091170191
:1021D00069817A818B819C81B4D49B01AC01C70158
:1021E000B601D4D16B017C012AE037ED43EA5BE311
:1021F00069857A858B859C85A4D469877A878B8746
:102200009C872AE037ED43EA5BE36D857E858F8509
:10221000988997D46D877E878F87988B2AE037EDD2
:1022200043EA5BE3C701B6018CD469837A838B836D
:102230009C8300E011E0D8018D919D910D90BC919F
:10224000A02D8D839E83AF83B887F801848095800D
:10225000A680B780C084D184E284F384A501940170
:10226000505869857A858B859C856BD42B013C0100
:10227000A70196016D857E858F85988962D49B0123
:10228000AC01C301B20181D12B013C01D8011C96E4
:102290002D913D914D915C911F9769817A818B8140
:1022A0009C814FD49B01AC01C301B2016ED1F801F6
:1022B000208131814281538169D1D8016D937D9311
:1022C0008D939C9313972D813E814F81588569850D
:1022D0007A858B859C8535D42B013C01A70196011D
:1022E00069817A818B819C812CD49B01AC01C301D3
:1022F000B2014CD12B013C01F8012485358546857E
:1023000057856D857E858F8598891BD49B01AC018F
:10231000C301B2013AD1D80114962D913D914D914E
:102320005C91179733D1F801648375838683978313
:102330002D813E814F8158856D857E858F85988959
:1023400000D42B013C01A501940169817A818B8124
:102350009C81F7D39B01AC01C301B20116D12B01C3
:102360003C01D8011C962D913D914D915C911F9798
:1023700069857A858B859C85E4D39B01AC01C3017B
:10238000B20104D1F8012085318542855385FED004
:10239000D80118966D937D938D939C931B971C96F3
:1023A0004D905D906D907C901F972D813E814F8167
:1023B000588569817A818B819C81C3D369837A83B3
:1023C0008B839C83A50194016D857E858F8598897B
:1023D000B8D39B01AC0169817A818B819C81D6D075
:1023E0004B015C01A701960169857A858B859C85E7
:1023F000A8D39B01AC01C501B401C7D09B01AC01BE
:10240000C301B201C3D0F8016487758786879787B7
:1024100060817181828193812081318142815381E8
:1024200090D36B017C01D80114966D917D918D91B3
:102430009C91179714962D913D914D915C91179712
:1024400080D39B01AC01C701B601A0D06B017C0118
:10245000F801608571858285938520853185428567
:1024600053856FD39B01AC01C701B6018FD06B01BF
:102470007C01D8011C966D917D918D919C911F9747
:102480001C962D913D914D915C911F975AD39B01C4
:10249000AC01C701B6017AD02DDC6B017C01F801DB
:1024A00020813181428153814CD3D8016D937D933A
:1024B0008D939C93139714962D913D914D915C9122
:1024C0001797C701B6013DD3F801648375838683EE
:1024D00097832085318542855385C701B60131D365
:1024E000D80118966D937D938D939C931B971C96A2
:1024F0002D913D914D915C911F97C701B60121D35C
:10250000F801648775878687978780819181A2818A
:10251000B381F10180839183A283B383F801848125
:102520009581A681B781F10184839583A683B783C2
:10253000F80180859185A285B385F1018087918717
:10254000A287B387F80184859585A685B785F101B3
:1025500084879587A687B7876C960FB6F894DEBFF9
:102560000FBECDBFDF91CF911F910F91FF90EF90E4
:10257000DF90CF90BF90AF909F908F907F906F90A3
:102580005F904F903F902F9008955058BB27AA27F7
:102590000ED07BC26CD230F071D220F031F49F3F6C
:1025A00011F41EF42BC20EF4E095E7FBF8C1E92FFD
:1025B0007DD280F3BA17620773078407950718F076
:1025C00071F49EF5ACC20EF4E0950B2EBA2FA02D3F
:1025D0000B01B90190010C01CA01A0011124FF27D0
:1025E000591B99F0593F50F4503E68F11A16F040CB
:1025F000A22F232F342F4427585FF3CF46953795CA
:102600002795A795F0405395C9F77EF41F16BA0B8E
:10261000620B730B840BBAF09150A1F0FF0FBB1F3C
:10262000661F771F881FC2F70EC0BA0F621F731F85
:10263000841F48F4879577956795B795F7959E3FE2
:1026400008F0B3CF9395880F08F09927EE0F979570
:10265000879508959F939F77EEE389379E0720F42F
:10266000ECE8F0E0F3D109C05BD19058A2EA2AED82
:102670003FE049EC5FE39BDF08D20F9007FC9058E6
:102680000895F5D158F080E891E009F49EEFF6D175
:1026900028F040E851E059F45EEF09C0AFC13FC2F5
:1026A000E92FE07803D268F3092E052AC1F3261733
:1026B00037074807590738F00E2E07F8E02569F06C
:1026C000E025E0640AC0EF6307F8009407FADB0135
:1026D000B9019D01DC01CA01AD01EF935AD0D5D1FA
:1026E0000AD05F91552331F02BED3FE049E450FDD6
:1026F00049EC4CCF0895DF93DD27B92FBF7740E831
:102700005FE31616170648075B0710F4D92F12D29D
:102710009F938F937F936F93D9D2E0EAF0E071D1CA
:10272000B4D12F913F914F915F9117D2DD2349F0A2
:102730009058A2EA2AED3FE049EC5FE3D0785D27AC
:1027400036DFDF91A2C1D4D180F09F3740F49111E0
:102750000EF4E6C160E070E080E89FE3089526F0A3
:102760001B16611D711D811D20C13AC1F4D008F4F2
:1027700081E008950CD089C181D140F078D130F04A
:1027800021F45F3F19F00BC15111CAC137C18ED17D
:1027900098F39923C9F35523B1F3951B550BBB2728
:1027A000AA2762177307840738F09F5F5F4F220FD5
:1027B000331F441FAA1FA9F333D00E2E3AF0E0E8CE
:1027C00030D091505040E695001CCAF729D0FE2F1A
:1027D00027D0660F771F881FBB1F261737074807AC
:1027E000AB07B0E809F0BB0B802DBF01FF27935862
:1027F0005F4F2AF09E3F510568F0D1C091C15F3F05
:10280000ECF3983EDCF3869577956795B795F79549
:102810009F5FC9F7880F911D9695879597F9089541
:10282000E1E0660F771F881FBB1F621773078407DD
:10283000BA0720F0621B730B840BBA0BEE1F88F7EC
:10284000E095089504D06894B1116AC1089536D115
:1028500088F09F5790F0B92F9927B751A0F0D1F089
:10286000660F771F881F991F1AF0BA95C9F712C013
:10287000B13081F054D1B1E0089551C1672F782F64
:102880008827B85F39F0B93FCCF38695779567957F
:10289000B395D9F73EF490958095709561957F4FEB
:1028A0008F4F9F4F0895E89409C097FB3EF4909591
:1028B0008095709561957F4F8F4F9F4F9923A9F019
:1028C000F92F96E9BB279395F695879577956795A8
:1028D000B795F111F8CFFAF4BB0F11F460FF1BC0EC
:1028E0006F5F7F4F8F4F9F4F16C0882311F096E97F
:1028F00011C0772321F09EE8872F762F05C066232D
:1029000071F096E8862F70E060E02AF09A95660FE5
:10291000771F881FDAF7880F9695879597F908959E
:10292000DF93CF931F930F938B01EC01EDECF0E05D
:1029300068D0ABD09801AE018B01EC0160E070E093
:1029400080E89FE322DE84D19801AE010F911F91B0
:10295000CF91DF9102C1990F0008550FAA0BE0E853
:10296000FEEF16161706E807F907C0F01216130651
:10297000E407F50798F0621B730B840B950B39F491
:102980000A2661F0232B242B252B21F408950A26F7
:1029900009F4A140A6958FEF811D811D089597F937
:1029A0009F6780E870E060E00895882371F47723E2
:1029B00021F09850872B762F07C0662311F49927B2
:1029C0000DC09051862B70E060E02AF09A95660F5A
:1029D000771F881FDAF7880F9695879597F90895DE
:1029E0009F3F31F0915020F4879577956795B79583
:1029F000880F911D9695879597F908959FEF80EC24
:102A00000895DF93CF931F930F93FF92EF92DF927E
:102A10007B018C01689405C0DA2EEF019ED0FE0187
:102A2000E894A5912591359145915591AEF3EF012B
:102A3000BEDDFE019701A801DA9479F7DF90EF90EF
:102A4000FF900F911F91CF91DF9108959F938F93E6
:102A50007F936F93FF93EF939B01AC0172D0EF9143
:102A6000FF91CFDF2F913F914F915F916AC000247A
:102A70000A941616170618060906089500240A94E3
:102A800012161306140605060895092E0394000C69
:102A900011F4882352F0BB0F40F4BF2B11F460FFF8
:102AA00004C06F5F7F4F8F4F9F4F089557FD905821
:102AB000440F551F59F05F3F71F04795880F97FB02
:102AC000991F61F09F3F79F08795089512161306BC
:102AD0001406551FF2CF4695F1DF08C016161706EB
:102AE0001806991FF1CF8695710561050894089520
:102AF000E5DFA0F0BEE7B91788F4BB279F3860F484
:102B00001616B11D672F782F8827985FF7CF869507
:102B100077956795B11D93959639C8F30895E89414
:102B2000BB2766277727CB0197F9089514DF08F4B0
:102B30008FEF08959B01AC0160E070E080E89FE3B7
:102B400019CE0BD0A2CF93DF28F098DF18F0952391
:102B500009F025CF53CF1124E3CFA8DFA0F3959F31
:102B6000D1F3950F50E0551F629FF001729FBB2774
:102B7000F00DB11D639FAA27F00DB11DAA1F649F20
:102B80006627B00DA11D661F829F2227B00DA11DD3
:102B9000621F739FB00DA11D621F839FA00D611D59
:102BA000221F749F3327A00D611D231F849F600D7A
:102BB000211D822F762F6A2F11249F5750408AF0B3
:102BC000E1F088234AF0EE0FFF1FBB1F661F771F3F
:102BD000881F91505040A9F79E3F510570F0DFCEFD
:102BE0009FCF5F3FECF3983EDCF386957795679532
:102BF000B795F795E7959F5FC1F7FE2B880F911D5D
:102C00009695879597F9089559DFE0F09E37D8F0AB
:102C10009639B8F49E3848F4672F782F8827985F44
:102C2000F9CF86957795679593959539D0F3B62F1B
:102C3000B1706B0F711D811D20F487957795679595
:102C40009395B3CECDCE6CCF11F40EF4D7CEC8CEC3
:102C500035DFD0F39923D9F3CEF39F57550B87FF78
:102C600038D00024A0E640EA900180585695979508
:102C700028F4805C660F771F881F20F0261737071F
:102C8000480730F4621B730B840B202931294A2B2F
:102C9000A69517940794202531254A2758F7660FE3
:102CA000771F881F20F026173707480730F4620B7C
:102CB000730B840B200D311D411DA09581F7B901C7
:102CC000842F9158880F9695879508959B01AC01A4
:102CD00038CF91505040660F771F881FD2F7089564
:102CE0000F931F93CF93DF93CDB7DEB72E970FB619
:102CF000F894DEBF0FBECDBF0D891E8986E08C83A0
:102D00001A8309838FEF9FE79E838D83AE01475E11
:102D10005F4F6F89788DCE01019610D0EF81F885D5
:102D2000E00FF11F10822E960FB6F894DEBF0FBE93
:102D3000CDBFDF91CF911F910F9108952F923F92B8
:102D40004F925F926F927F928F929F92AF92BF92BB
:102D5000CF92DF92EF92FF920F931F93CF93DF9367
:102D6000CDB7DEB72B970FB6F894DEBF0FBECDBF41
:102D70006C017B018A01FC0117821682838181FF2D
:102D8000BFC1CE0101963C01F6019381F70193FD8D
:102D9000859193FF81917F01882309F4ADC185322C
:102DA00039F493FD859193FF81917F01853221F460
:102DB000B60190E0D6D1E8CF912C212C312CFFE147
:102DC000F315D8F08B3279F038F4803279F0833211
:102DD000A1F4232D20611DC08D3261F0803369F490
:102DE000232D216016C0832D8260382EE32DE460F0
:102DF0003E2E2AC0F32DF8601DC037FC2DC020EDFB
:102E0000280F2A3040F08E32B9F436FC75C1232DDC
:102E10002064322E19C036FE06C08AE0989E200D2E
:102E20001124922E11C0EAE02E9E200D1124222E94
:102E3000F32DF0623F2E08C08C3621F4832D80687C
:102E4000382E02C0883641F4F70193FD859193FF37
:102E500081917F018111B3CF982F9F7D955493303D
:102E600028F40C5F1F4F9FE399830DC0833631F028
:102E7000833771F0833509F055C020C0F801808197
:102E800089830E5F1F4F88248394912C530112C0B5
:102E90002801F2E04F0E511CF801A080B18036FEEF
:102EA00003C0692D70E002C06FEF7FEFC5014ED106
:102EB0004C018201F32DFF773F2E15C0280122E03F
:102EC000420E511CF801A080B18036FE03C0692D6E
:102ED00070E002C06FEF7FEFC5012DD14C01F32DE3
:102EE000F0683F2E820133FC19C0822D90E08816D5
:102EF0009906A0F4B60180E290E033D12A94F5CF90
:102F0000F50137FC859137FE81915F01B60190E0B4
:102F100028D121102A9421E0821A91088114910469
:102F200079F7E1C0843611F0893639F5F80137FEBA
:102F300007C060817181828193810C5F1F4F08C03F
:102F400060817181072E000C880B990B0E5F1F4F5B
:102F5000F32DFF763F2E97FF09C0909580957095D1
:102F600061957F4F8F4F9F4FF0683F2E2AE030E0F2
:102F7000A30133D1882E861844C0853731F4232D20
:102F80002F7EB22E2AE030E025C0932D997FB92EF6
:102F90008F36C1F018F4883579F0AEC0803719F05B
:102FA000883721F0A9C0E92FE061BE2EB4FE0DC024
:102FB000FB2DF460BF2E09C034FE0AC0292F266005
:102FC000B22E06C028E030E005C020E130E002C0AB
:102FD00020E132E0F801B7FE07C060817181828193
:102FE00093810C5F1F4F06C06081718180E090E08B
:102FF0000E5F1F4FA301F1D0882E8618FB2DFF779F
:103000003F2E36FE0DC0232D2E7FA22E891458F49C
:1030100034FE0BC032FC09C0832D8E7EA82E05C065
:10302000B82CA32C03C0B82C01C0B92CA4FE0FC02F
:10303000FE01E80DF11D8081803321F49A2D997EE7
:10304000A92E09C0A2FE06C0B394B39404C08A2D71
:10305000867809F0B394A3FC10C0A0FE06C0B21499
:1030600080F4280C922C9B180DC0B21458F4B601B1
:1030700080E290E076D0B394F8CFB21418F42B1815
:1030800002C0982C212CA4FE0FC0B60180E390E072
:1030900068D0A2FE16C0A1FC03C088E790E002C081
:1030A00088E590E0B6010CC08A2D867851F0A1FE2B
:1030B00002C08BE201C080E2A7FC8DE2B60190E085
:1030C00050D0891430F4B60180E390E04AD09A944D
:1030D000F8CF8A94F301E80DF11D8081B60190E0EC
:1030E00040D08110F6CF222009F44ECEB60180E206
:1030F00090E037D02A94F7CFF6018681978102C0FD
:103100008FEF9FEF2B960FB6F894DEBF0FBECDBFAB
:10311000DF91CF911F910F91FF90EF90DF90CF90B3
:10312000BF90AF909F908F907F906F905F904F90E7
:103130003F902F900895FC01059061507040011060
:10314000D8F7809590958E0F9F1F0895FC016150D0
:10315000704001900110D8F7809590958E0F9F1FB9
:1031600008950F931F93CF93DF93FB01238121FDDC
:1031700003C08FEF9FEF2CC022FF16C046815781FE
:10318000248135814217530744F4A081B1819D0108
:103190002F5F3F4F318320838C93268137812F5FB0
:1031A0003F4F3783268314C08B01EC01FB01008461
:1031B000F185E02D0995892BE1F6D80116968D91C0
:1031C0009C911797019617969C938E931697CE0114
:1031D000DF91CF911F910F910895FA01AA2728300E
:1031E00051F1203181F1E8946F936E7F6E5F7F4FD4
:1031F0008F4F9F4FAF4FB1E03ED0B4E03CD0670F50
:10320000781F891F9A1FA11D680F791F8A1F911DA2
:10321000A11D6A0F711D811D911DA11D20D009F4F2
:1032200068943F912AE0269F11243019305D319334
:10323000DEF6CF010895462F4770405D4193B3E01D
:103240000FD0C9F7F6CF462F4F70405D4A3318F0C4
:10325000495D31FD4052419302D0A9F7EACFB4E075
:10326000A6959795879577956795BA95C9F700972D
:103270006105710508959B01AC010A2E06945795CE
:10328000479537952795BA95C9F7620F731F841F25
:0A329000951FA01D0895F894FFCFCC
:10329A000000803F00000000000000000000000065
:1032AA00CDCCCC3D000000405061737300506C657A
:1032BA006173652052657374617274004661696C4A
:1032CA0020256400503A256420703A256420793A12
:1032DA0025640064697374616E6365202564004D1A
:1032EA0050553630353020494420257800726561C2
:1032FA0064206572726F72202564004649464F2029
:0A330A00436F756E743A20256400CD
:00000001FF
