:1000000045C0000061C000005FC000005DC000008E
:100010005BC0000059C0000057C0000055C0000080
:1000200053C0000051C000004FC000004DC0000090
:10003000BBC3000049C0000047C0000045C000002D
:1000400043C0000041C0000040C000003DC00000AF
:100050003BC0000039C0000037C0000035C00000C0
:1000600033C0000031C000002FC000002DC00000D0
:100070002BC0000029C0000027C0000025C00000E0
:1000800023C0000021C000001FC0000011241FBEBB
:10009000CFEFD0E1DEBFCDBF11E0A0E0B1E0ECE5F5
:1000A000F7E100E00BBF02C007900D92AE37B10739
:1000B000D9F721E0AEE7B1E001C01D92AD39B2073A
:1000C000E1F77DD30C94AC0B9BCF1F920F920FB630
:1000D0000F9211240BB60F928F939F93EF93FF9380
:1000E0008CB18A3A31F491E090937E0180937F0144
:1000F00013C0E0917E01E83068F491E09E0F909388
:100100007E01F0E0E158FE4F8083983029F4109290
:100110007E0102C010927E01FF91EF919F918F911D
:100120000F900BBE0F900FBE0F901F90189510925E
:100130007E01C5D5E5E6F0E080818B7F80838081FC
:100140008D7F808380818160808326EF2A95F1F7FF
:1001500081E08BBB86EF8A95F1F780818E7F80836B
:1001600082E006C0E6E6FEE03197F1F70000892F55
:100170009FEF980F8111F6CFE5E6F0E080818B7F4D
:10018000808380818D7F808380818160808326EF62
:100190002A95F1F780E88BBB86EF8A95F1F780818D
:1001A0008E7F8083A4E0B1E022C0119681E006C07A
:1001B000E6E6FEE03197F1F70000822F2FEF280FDF
:1001C0008111F6CFE5E6F0E0808184608083808154
:1001D0008D7F808380818160808326EF2A95F1F76F
:1001E0009BBB86EF8A95F1F780818E7F80839C91FF
:1001F0009111DBCFE5E6F0E080818B7F8083808109
:100200008D7F808380818160808396EF9A95F1F75E
:1002100080EC8BBB26EF2A95F1F780818E7F80835F
:10022000A4E1B1E022C0119681E006C0E6E6FEE05E
:100230003197F1F70000822F2FEF280F8111F6CFB1
:10024000E5E6F0E080818460808380818D7F80831B
:1002500080818160808326EF2A95F1F79BBB86EF32
:100260008A95F1F780818E7F80839C919111DBCFFD
:100270009FEFEFEFF3EB9150E040F040E1F700C06B
:100280000000E5E6F0E080818B7F808380818D7FB8
:10029000808380818160808326EF2A95F1F781E059
:1002A0008BBB86EF8A95F1F780818E7F808382E019
:1002B00006C0E6E6FEE03197F1F70000892F9FEFD8
:1002C000980F8111F6CFE5E6F0E080818B7F808387
:1002D00080818D7F808380818160808326EF2A9555
:1002E000F1F780E88BBB86EF8A95F1F780818E7FEE
:1002F0008083A4E2B1E022C0119681E006C0E6E668
:10030000FEE03197F1F70000822F2FEF280F8111C7
:10031000F6CFE5E6F0E080818460808380818D7F88
:10032000808380818160808326EF2A95F1F79BBBD3
:1003300086EF8A95F1F780818E7F80839C91911161
:10034000DBCFE5E6F0E080818B7F808380818D7F4D
:10035000808380818160808396EF9A95F1F780ECAD
:100360008BBB26EF2A95F1F780818E7F8083A2E3F5
:10037000B1E022C0119681E006C0E6E6FEE03197CA
:10038000F1F70000822F2FEF280F8111F6CFE5E65D
:10039000F0E080818460808380818D7F8083808194
:1003A0008160808326EF2A95F1F79BBB86EF8A95C3
:1003B000F1F780818E7F80839C919111DBCF9FEF3D
:1003C000EFEFF3E29150E040F040E1F700C00000B1
:1003D000E5E6F0E080818B7F808380818D7F808364
:1003E00080818160808326EF2A95F1F780EC8BBBBA
:1003F00086EF8A95F1F780818E7F8083ABE3B1E051
:1004000022C0119681E006C0E6E6FEE03197F1F7E2
:100410000000822F2FEF280F8111F6CFE5E6F0E0E4
:1004200080818460808380818D7F808380818160F2
:10043000808326EF2A95F1F79BBB86EF8A95F1F72B
:1004400080818E7F80839C919111DBCF85EA41D49E
:1004500084E53FD49FEFEFEFF3EB9150E040F040A5
:10046000E1F700C00000E5E6F0E080818B7F80834B
:1004700080818D7F808380818160808326EF2A95B3
:10048000F1F781E08BBB86EF8A95F1F780818E7F53
:10049000808382E006C0E6E6FEE03197F1F70000D7
:1004A000892F9FEF980F8111F6CFE5E6F0E080816C
:1004B0008B7F808380818D7F80838081816080833A
:1004C00026EF2A95F1F780E88BBB86EF8A95F1F746
:1004D00080818E7F8083ACE4B1E022C0119681E000
:1004E00006C0E6E6FEE03197F1F70000822F2FEF1D
:1004F000280F8111F6CFE5E6F0E0808184608083EB
:1005000080818D7F808380818160808326EF2A9522
:10051000F1F79BBB86EF8A95F1F780818E7F808310
:100520009C919111DBCFE5E6F0E080818B7F8083A9
:1005300080818D7F808380818160808396EF9A9512
:10054000F1F780EC8BBB26EF2A95F1F780818E7F47
:100550008083A2E3B1E022C0119681E006C0E6E606
:10056000FEE03197F1F70000822F2FEF280F811165
:10057000F6CFE5E6F0E080818460808380818D7F26
:10058000808380818160808326EF2A95F1F79BBB71
:1005900086EF8A95F1F780818E7F80839C919111FF
:1005A000DBCF9FEFEFEFF3E29150E040F040E1F757
:1005B00000C00000E5E6F0E080818B7F80838081D1
:1005C0008D7F808380818160808326EF2A95F1F77B
:1005D00080EC8BBB86EF8A95F1F780818E7F8083DC
:1005E000ABE3B1E022C0119681E006C0E6E6FEE092
:1005F0003197F1F70000822F2FEF280F8111F6CFEE
:10060000E5E6F0E080818460808380818D7F808357
:1006100080818160808326EF2A95F1F79BBB86EF6E
:100620008A95F1F780818E7F80839C919111DBCF39
:1006300085EA4FD385E54DD39FEFEFEFF3EB915074
:10064000E040F040E1F700C000000895CF93DF9351
:10065000CDB7DEB764970FB6F894DEBF0FBECDBF3F
:1006600085EA37D381E535D326E686EE90E0215042
:1006700080409040E1F720E010C0822F022E000C55
:10068000990BFC01E158FE4F3081EDE0F0E0EC0FFA
:10069000FD1FE80FF91F30832F5F283074F38D851D
:1006A0008A3A21F58C89853509F58E8590E0982F59
:1006B00088272F85822B24E630E0B9014BD57C8733
:1006C0006B87888990E0982F88274989842BB90106
:1006D00041D57A8769878A8990E0982F88274B8946
:1006E000842BB90137D578876F8308C081E293E006
:1006F0009A87898798878F839C878B872CEC8CECD3
:1007000091E0215080409040E1F700C086E0FE017A
:100710003796DE01119601900D928A95E1F72981B5
:100720003A814B815C816D817E8180E090E06496AE
:100730000FB6F894DEBF0FBECDBFDF91CF91089505
:10074000E5E6F0E080818B7F808380818D7F8083F0
:1007500080818160808386EF8A95F1F781E08BBB91
:1007600086EF8A95F1F780818E7F808382E006C0D4
:10077000E6E6FEE03197F1F70000892F9FEF980F32
:100780008111F6CF08951FBC8FB5826A8FBD8EB5DB
:100790008A618EBD8FEF9FE897BD86BD08958FEF6C
:1007A00087BB11BAF0CF08951F920F920FB60F9228
:1007B000112400000F900FBE0F901F901895CF933B
:1007C000DF93CDB7DEB7A0970FB6F894DEBF0FBEAC
:1007D000CDBF8FEF8ABBE4E6F0E080818760808345
:1007E000E5E6F0E080818B7F808380818D7F808350
:1007F00080818160808386EF8A95F1F788E38BBBE7
:1008000096EF9A95F1F780818E7F808384E006C011
:10081000A6E6BEE01197F1F70000892F9FEF980F31
:100820008111F6CFE5E6F0E080818B7F80838081C7
:100830008D7F8083808181608083B6EFBA95F1F7E8
:1008400088E38BBB86EF8A95F1F780818E7F80836A
:1008500084E006C0A6E6BEE01197F1F70000892FFC
:100860009FEF980F8111F6CFE5E6F0E080818B7F56
:10087000808380818D7F8083808181608083B6EFDB
:10088000BA95F1F788E38BBB86EF8A95F1F7808103
:100890008E7F808384E006C0A6E6BEE01197F1F764
:1008A0000000892F9FEF980F8111F6CFE5E6F0E069
:1008B00080818B7F808380818D7F80838081816038
:1008C0008083B6EFBA95F1F78EE08BBB86EF8A9501
:1008D000F1F780818E7F808382E006C0A6E6BEE0CD
:1008E0001197F1F70000892F9FEF980F8111F6CF34
:1008F000E5E6F0E080818B7F808380818D7F80833F
:10090000808181608083B6EFBA95F1F786E08BBB7A
:1009100086EF8A95F1F780818E7F808382E006C022
:10092000A6E6BEE01197F1F70000892F9FEF980F20
:100930008111F6CF05DFFBDB32DF789411BA00DFDF
:1009400085DE20939701309398014093990150934D
:100950009A0160939B0170939C01E3E9F1E08AE5C1
:1009600090E093838283918380838DEC9AE099BD9C
:1009700088BD6081718180E090E0BBD220E030E0F2
:1009800044E353E422D220E030E646E655E47FD348
:1009900020E030E846E654E4A1D104D27ED27BBD0B
:1009A0006ABD88EE93E006C0E6E6FEE03197F1F717
:1009B0000000C9019C0121503109892BA9F746DEAD
:1009C00020938D0130938E0140938F0150939001BD
:1009D000609391017093920107E911E0D80112969A
:1009E0008D919C911397E0900201F09003018E9DF0
:1009F00090018F9D300D9E9D300D11240F2EFDE82E
:100A00008F2EF1E09F2EF02DF40142815381E09171
:100A10000001F09101015F01AE18BF084A9DC001BD
:100A20004B9D900D5A9D900D1124820F931FBF0175
:100A300091D39B010F2EF7E8CF2EF1E0DF2EF02DA2
:100A4000D60113967C936E931297D80114968D91CC
:100A50009C911597E89EB001E99E700DF89E700D6F
:100A60001124D40114964D915C911597A49EC00158
:100A7000A59E900DB49E900D1124860F971FBF0167
:100A800069D33B01D60115967C936E931497D801D8
:100A90008D919C91E89EA001E99E500DF89E500D0D
:100AA0001124D4016D917C91A69EC001A79E900D4A
:100AB000B69E900D1124840F951FBF014BD3F601F4
:100AC00071836083B901665A7F4F80E090E011D254
:100AD00020E030E044E353E478D120E030E646E61D
:100AE00055E4D5D220E030E846E654E4F7D05AD1B8
:100AF000D4D179BD68BDB301665A7F4F80E090E0E4
:100B0000F8D120E030E044E353E45FD120E030E668
:100B100046E655E4BCD220E030E846E654E4DED0B8
:100B200041D1BBD17BBD6ABDD80113968C9113977F
:100B30008F9312968C9112978F9315968C9115978F
:100B40008F9314968C918F9380E791E09F938F936E
:100B5000CE0101969F938F9324D3E5E6F0E0808148
:100B60008B7F808380818D7F808380818160808383
:100B7000B6EFBA95F1F781E08BBB86EF8A95F1F776
:100B800080818E7F80830FB6F894DEBF0FBECDBF0D
:100B900082E006C0E6E6FEE03197F1F70000892F1B
:100BA0009FEF980F8111F6CFE5E6F0E080818B7F13
:100BB000808380818D7F808380818160808386EFC8
:100BC0008A95F1F780E88BBB96EF9A95F1F78081D3
:100BD0008E7F8083DE01119622C0119681E006C0CF
:100BE000E6E6FEE03197F1F70000822F2FEF280FA5
:100BF0008111F6CFE5E6F0E080818460808380811A
:100C00008D7F808380818160808386EF8A95F1F774
:100C10009BBB96EF9A95F1F780818E7F80839C91A4
:100C20009111DBCFE5E6F0E080818B7F80838081CE
:100C30008D7F8083808181608083A6EFAA95F1F704
:100C400080EC8BBBB6EFBA95F1F780818E7F808305
:100C5000DE01119622C0119681E006C0E6E6FEE0B4
:100C60003197F1F70000822F2FEF280F8111F6CF77
:100C7000E5E6F0E080818460808380818D7F8083E1
:100C800080818160808386EF8A95F1F79BBB96EF28
:100C90009A95F1F780818E7F80839C919111DBCFB3
:100CA0008CE291E006C0A6E6BEE01197F1F70000E5
:100CB000C9019C0121503109892BA9F780CE1092DE
:100CC000900087E089B988E98AB986E08093950029
:100CD00008955D9BFECF8CB908955058BB27AA2775
:100CE0000ED084C175D130F07AD120F031F49F3F1D
:100CF00011F41EF46AC10EF4E095E7FB37C1E92F49
:100D000086D180F3BA17620773078407950718F036
:100D100071F49EF5B5C10EF4E0950B2EBA2FA02DFF
:100D20000B01B90190010C01CA01A0011124FF2798
:100D3000591B99F0593F50F4503E68F11A16F04093
:100D4000A22F232F342F4427585FF3CF4695379592
:100D50002795A795F0405395C9F77EF41F16BA0B57
:100D6000620B730B840BBAF09150A1F0FF0FBB1F05
:100D7000661F771F881FC2F70EC0BA0F621F731F4E
:100D8000841F48F4879577956795B795F7959E3FAB
:100D900008F0B3CF9395880F08F09927EE0F979539
:100DA0008795089556D180F09F3740F491110EF445
:100DB00068C160E070E080E89FE3089526F01B16AC
:100DC000611D711D811DD8C0F2C00CD00FC107D1AB
:100DD00040F0FED030F021F45F3F19F0C7C0511150
:100DE00050C1F3C014D198F39923C9F35523B1F33B
:100DF000951B550BBB27AA2762177307840738F08A
:100E00009F5F5F4F220F331F441FAA1FA9F333D0E8
:100E10000E2E3AF0E0E830D091505040E695001C9C
:100E2000CAF729D0FE2F27D0660F771F881FBB1F58
:100E3000261737074807AB07B0E809F0BB0B802D32
:100E4000BF01FF2793585F4F2AF09E3F510568F07E
:100E50008DC017C15F3FECF3983EDCF38695779524
:100E60006795B795F7959F5FC9F7880F911D969580
:100E7000879597F90895E1E0660F771F881FBB1FDC
:100E8000621773078407BA0720F0621B730B840B89
:100E9000BA0BEE1F88F7E0950895C1D088F09F57F0
:100EA00090F0B92F9927B751A0F0D1F0660F771FB6
:100EB000881F991F1AF0BA95C9F712C0B13081F096
:100EC000DFD0B1E00895DCC0672F782F8827B85FA6
:100ED00039F0B93FCCF3869577956795B395D9F7F7
:100EE0003EF490958095709561957F4F8F4F9F4F01
:100EF0000895E89409C097FB3EF49095809570950D
:100F000061957F4F8F4F9F4F9923A9F0F92F96E955
:100F1000BB279395F695879577956795B795F111CA
:100F2000F8CFFAF4BB0F11F460FF1BC06F5F7F4F67
:100F30008F4F9F4F16C0882311F096E911C0772379
:100F400021F09EE8872F762F05C0662371F096E882
:100F5000862F70E060E02AF09A95660F771F881F51
:100F6000DAF7880F9695879597F9089597F99F670F
:100F700080E870E060E00895882371F4772321F021
:100F80009850872B762F07C0662311F499270DC040
:100F90009051862B70E060E02AF09A95660F771FDB
:100FA000881FDAF7880F9695879597F908959F3FE0
:100FB00031F0915020F4879577956795B795880F14
:100FC000911D9695879597F908959FEF80EC089568
:100FD00000240A9416161706180609060895002418
:100FE0000A9412161306140605060895092E039492
:100FF000000C11F4882352F0BB0F40F4BF2B11F406
:1010000060FF04C06F5F7F4F8F4F9F4F089557FD64
:101010009058440F551F59F05F3F71F04795880F66
:1010200097FB991F61F09F3F79F0879508951216FD
:1010300013061406551FF2CF4695F1DF08C01616A9
:1010400017061806991FF1CF86957105610508945A
:101050000895E5DFA0F0BEE7B91788F4BB279F38F5
:1010600060F41616B11D672F782F8827985FF7CF89
:10107000869577956795B11D93959639C8F3089530
:10108000E894BB2766277727CB0197F908950BD003
:10109000ADCF9EDF28F0A3DF18F0952309F066CFCF
:1010A00094CF1124EECFB3DFA0F3959FD1F3950F2A
:1010B00050E0551F629FF001729FBB27F00DB11DDC
:1010C000639FAA27F00DB11DAA1F649F6627B00D6C
:1010D000A11D661F829F2227B00DA11D621F739F55
:1010E000B00DA11D621F839FA00D611D221F749F63
:1010F0003327A00D611D231F849F600D211D822FAA
:10110000762F6A2F11249F5750408AF0E1F08823F0
:101110004AF0EE0FFF1FBB1F661F771F881F9150FD
:101120005040A9F79E3F510570F020CFAACF5F3FF6
:10113000ECF3983EDCF3869577956795B795F79530
:10114000E7959F5FC1F7FE2B880F911D96958795B8
:1011500097F9089597FB072E16F4009406D077FDB3
:1011600008D00BD007FC05D03EF4909581959F4F99
:101170000895709561957F4F0895AA1BBB1B51E19F
:1011800007C0AA1FBB1FA617B70710F0A61BB70BF7
:10119000881F991F5A95A9F780959095BC01CD019C
:1011A00008950F931F93CF93DF93CDB7DEB72E979C
:1011B0000FB6F894DEBF0FBECDBF0D891E8986E045
:1011C0008C831A8309838FEF9FE79E838D83AE0103
:1011D000475E5F4F6F89788DCE01019610D0EF8109
:1011E000F885E00FF11F10822E960FB6F894DEBF3F
:1011F0000FBECDBFDF91CF911F910F9108952F9218
:101200003F924F925F926F927F928F929F92AF9296
:10121000BF92CF92DF92EF92FF920F931F93CF93E3
:10122000DF93CDB7DEB72B970FB6F894DEBF0FBEB6
:10123000CDBF6C017B018A01FC011782168283817C
:1012400081FFBFC1CE0101963C01F6019381F701F8
:1012500093FD859193FF81917F01882309F4ADC1AE
:10126000853239F493FD859193FF81917F01853219
:1012700021F4B60190E0D6D1E8CF912C212C312C6D
:10128000FFE1F315D8F08B3279F038F4803279F041
:101290008332A1F4232D20611DC08D3261F0803393
:1012A00069F4232D216016C0832D8260382EE32D32
:1012B000E4603E2E2AC0F32DF8601DC037FC2DC01F
:1012C00020ED280F2A3040F08E32B9F436FC75C17B
:1012D000232D2064322E19C036FE06C08AE0989E67
:1012E000200D1124922E11C0EAE02E9E200D112413
:1012F000222EF32DF0623F2E08C08C3621F4832D70
:101300008068382E02C0883641F4F70193FD85913C
:1013100093FF81917F018111B3CF982F9F7D9554C9
:10132000933028F40C5F1F4F9FE399830DC08336E1
:1013300031F0833771F0833509F055C020C0F801D2
:10134000808189830E5F1F4F88248394912C5301E1
:1013500012C02801F2E04F0E511CF801A080B180AC
:1013600036FE03C0692D70E002C06FEF7FEFC5014C
:101370004ED14C018201F32DFF773F2E15C028017D
:1013800022E0420E511CF801A080B18036FE03C05D
:10139000692D70E002C06FEF7FEFC5012DD14C01C8
:1013A000F32DF0683F2E820133FC19C0822D90E0AE
:1013B00088169906A0F4B60180E290E033D12A9411
:1013C000F5CFF50137FC859137FE81915F01B601BC
:1013D00090E028D121102A9421E0821A91088114EA
:1013E000910479F7E1C0843611F0893639F5F801B6
:1013F00037FE07C060817181828193810C5F1F4F2E
:1014000008C060817181072E000C880B990B0E5F5C
:101410001F4FF32DFF763F2E97FF09C090958095C3
:10142000709561957F4F8F4F9F4FF0683F2E2AE058
:1014300030E0A30133D1882E861844C0853731F4BB
:10144000232D2F7EB22E2AE030E025C0932D997FE8
:10145000B92E8F36C1F018F4883579F0AEC08037D8
:1014600019F0883721F0A9C0E92FE061BE2EB4FE43
:101470000DC0FB2DF460BF2E09C034FE0AC0292F19
:101480002660B22E06C028E030E005C020E130E042
:1014900002C020E132E0F801B7FE07C0608171812F
:1014A000828193810C5F1F4F06C06081718180E053
:1014B00090E00E5F1F4FA301F1D0882E8618FB2D00
:1014C000FF773F2E36FE0DC0232D2E7FA22E8914CE
:1014D00058F434FE0BC032FC09C0832D8E7EA82E3A
:1014E00005C0B82CA32C03C0B82C01C0B92CA4FE95
:1014F0000FC0FE01E80DF11D8081803321F49A2D8B
:10150000997EA92E09C0A2FE06C0B394B39404C06C
:101510008A2D867809F0B394A3FC10C0A0FE06C003
:10152000B21480F4280C922C9B180DC0B21458F4FD
:10153000B60180E290E076D0B394F8CFB21418F4FC
:101540002B1802C0982C212CA4FE0FC0B60180E3FA
:1015500090E068D0A2FE16C0A1FC03C088E790E02E
:1015600002C088E590E0B6010CC08A2D867851F063
:10157000A1FE02C08BE201C080E2A7FC8DE2B601B1
:1015800090E050D0891430F4B60180E390E04AD066
:101590009A94F8CF8A94F301E80DF11D8081B60189
:1015A00090E040D08110F6CF222009F44ECEB60153
:1015B00080E290E037D02A94F7CFF60186819781B8
:1015C00002C08FEF9FEF2B960FB6F894DEBF0FBED1
:1015D000CDBFDF91CF911F910F91FF90EF90DF90E2
:1015E000CF90BF90AF909F908F907F906F905F90C3
:1015F0004F903F902F900895FC01059061507040EE
:101600000110D8F7809590958E0F9F1F0895FC01CB
:101610006150704001900110D8F7809590958E0F21
:101620009F1F08950F931F93CF93DF93FB01238197
:1016300021FD03C08FEF9FEF2CC022FF16C0468113
:101640005781248135814217530744F4A081B18129
:101650009D012F5F3F4F318320838C9326813781FB
:101660002F5F3F4F3783268314C08B01EC01FB01B2
:101670000084F185E02D0995892BE1F6D8011696B5
:101680008D919C911797019617969C938E93169720
:10169000CE01DF91CF911F910F910895FA01AA27F2
:1016A000283051F1203181F1E8946F936E7F6E5FA5
:1016B0007F4F8F4F9F4FAF4FB1E03ED0B4E03CD053
:1016C000670F781F891F9A1FA11D680F791F8A1F36
:1016D000911DA11D6A0F711D811D911DA11D20D09D
:1016E00009F468943F912AE0269F11243019305D57
:1016F0003193DEF6CF010895462F4770405D419348
:10170000B3E00FD0C9F7F6CF462F4F70405D4A3394
:1017100018F0495D31FD4052419302D0A9F7EACF5C
:10172000B4E0A6959795879577956795BA95C9F78B
:1017300000976105710508959B01AC010A2E06947E
:101740005795479537952795BA95C9F7620F731F37
:0C175000841F951FA01D0895F894FFCF82
:10175C0064005000436F7272656374696F6E204D44
:10176C006F646500446F6E2774206D6F766520344E
:10177C007365630053657474696E67206C65766578
:10178C006C00576169742E2E2E2E0043616C6962B9
:10179C00726174696E672034736563005365747489
:1017AC00696E672048656164696E6700646567727D
:1017BC00656531203A0064656772656532203A00D0
:0E17CC00593A253364202020503A253364001A
:00000001FF
