:1000000045C0000061C000005FC000005DC000008E
:100010005BC0000059C0000057C0000055C0000080
:1000200053C0000051C000004FC000004DC0000090
:1000300003C1000049C0000047C0000045C00000E7
:1000400043C0000041C000003FC000003DC00000B0
:100050003BC0000039C0000037C0000035C00000C0
:1000600033C0000031C000002AC100002DC00000D4
:100070002BC0000029C0000027C0000025C00000E0
:1000800023C0000021C000001FC0000011241FBEBB
:10009000CFEFD0E1DEBFCDBF11E0A0E0B1E0E0E9FD
:1000A000FCE100E00BBF02C007900D92AE3CB1072F
:1000B000D9F722E0AEECB1E001C01D92A13FB2073A
:1000C000E1F7B2D60C94460E9BCF84B3807F84BBFD
:1000D00085B38F6085BB0895E5E6F0E080818B7F76
:1000E000808380818D7F808380818160808386EFA3
:1000F0008A95F1F781E08BBB86EF8A95F1F78081D5
:100100008E7F808382E006C0E6E6FEE03197F1F75D
:100110000000892F9FEF980F8111F6CFE5E6F0E000
:1001200080818B7F808380818D7F808380818160CF
:10013000808386EF8A95F1F780E88BBB86EF8A95FE
:10014000F1F780818E7F8083AFEBB1E022C0119602
:1001500081E006C0E6E6FEE03197F1F70000822F6D
:100160002FEF280F8111F6CFE5E6F0E08081846063
:10017000808380818D7F808380818160808386EF12
:100180008A95F1F79BBB86EF8A95F1F780818E7F88
:1001900080839C919111DBCFE5E6F0E080818B7F3D
:1001A000808380818D7F808380818160808386EFE2
:1001B0008A95F1F780EC8BBB86EF8A95F1F7808109
:1001C0008E7F8083A0EBB1E022C0119681E006C053
:1001D000E6E6FEE03197F1F70000822F2FEF280FBF
:1001E0008111F6CFE5E6F0E0808184608083808134
:1001F0008D7F808380818160808386EF8A95F1F78F
:100200009BBB86EF8A95F1F780818E7F80839C91DE
:100210009111DBCF08958EB588608EBD8EB5846058
:100220008EBD8EB58C7F8EBD8FE796E19BBD8ABD5E
:1002300087B7806187BF08951F920F920FB60F9204
:1002400011242F933F938F939F9383B38F7090913B
:1002500034019F30A9F48F3081F412C0282F30E090
:10026000092E02C0359527950A94E2F720FD03C0B8
:100270009093350105C09F5F01C090E0943074F306
:10028000809334019F918F913F912F910F900FBEDA
:100290000F901F901895EAE8F0E0808188608083D5
:1002A0008081856080838FE890E0909387008093C1
:1002B0008600EDE7F0E080818061808308951F92E1
:1002C0000F920FB60F9211242F933F934F935F938A
:1002D0006F937F938F939F93AF93BF938091DC0134
:1002E0009091DD0101969093DD018093DC018436CD
:1002F000910568F08091E0019091E1010196909361
:10030000E1018093E0011092DD011092DC01409147
:10031000DC015091DD019A01ADECBCEC0E945C0B5C
:100320009695879596958795969587959C01220F2A
:10033000331F880F991F880F991F880F991F820FED
:10034000931F4817590749F48091DE019091DF010E
:1003500001969093DF018093DE01BF91AF919F9151
:100360008F917F916F915F914F913F912F910F905E
:100370000FBE0F901F901895982F9295990F990F77
:10038000907C9068E5E6F0E020812B7F208320813F
:100390002D7F208320812160208326EF2A95F1F78D
:1003A0009BBB96EF9A95F1F790819E7F908320E01A
:1003B00023C0E6E6FEE03197F1F70000932F01C07D
:1003C00091E03FEF390F9111F4CFE5E6F0E0908135
:1003D0009460908390819D7F9083908191609083C1
:1003E00096EF9A95F1F790E29BBB96EF9A95F1F70D
:1003F00090819E7F90832F5F203110F38295880F2C
:10040000880F807C8068E5E6F0E090819B7F908398
:1004100090819D7F908390819160908326EF2A95B3
:10042000F1F78BBB86EF8A95F1F780818E7F808311
:1004300008958617B1F01092DB011092DA0180E086
:100440009BDF81E099DFE6E3F1E007C03196809120
:100450009B0085FFFCCF90939C0090819111F6CF7B
:1004600008958091DE019091DF012091D8013091B3
:10047000D901821B930B059708F46DC18091DE01B1
:100480009091DF019093D9018093D80184EA809301
:10049000740080E090E007C09C012F5F3F4F813DDA
:1004A000974060F4C901209174002223ACF7809139
:1004B0007100887F883021F042E003C041E001C034
:1004C00040E041113FC088E08093730084E880934E
:1004D000740080E090E007C09C012F5F3F4F813D9A
:1004E000974060F4C901209174002223ACF78091F9
:1004F0007100887F883119F042E001C041E041116C
:1005000021C081E48093730084E88093740080E0CC
:1005100090E007C09C012F5F3F4F813D974060F402
:10052000C901209174002223ACF780917100887F6B
:10053000883219F042E001C041E0411103C084E972
:10054000809374004111DBC0E5E6F0E080818B7F91
:10055000808380818D7F808380818160808346EF6E
:100560004A95F1F780E88BBB56EF5A95F1F78081F9
:100570008E7F80838091DB018F5F8093DB011F92F0
:100580008F938FE491E09F938F9381EE92E09F93FE
:100590008F930E946B0B0F900F900F900F900F9006
:1005A0000F90A1EEB2E022C0119681E006C0E6E60F
:1005B000FEE03197F1F70000822F2FEF280F811115
:1005C000F6CFE5E6F0E080818460808380818D7FD6
:1005D000808380818160808346EF4A95F1F79BBBE1
:1005E00056EF5A95F1F780818E7F80839C9191110F
:1005F000DBCF8091DA01803108F442C081E0BCDEBB
:100600001092DA01E5E6F0E080818B7F80838081C3
:100610008D7F808380818160808386EF8A95F1F76A
:1006200080EC8BBB96EF9A95F1F780818E7F80836B
:1006300081E006C0E6E6FEE03197F1F70000892F81
:100640009FEF980F8111F6CFE5E6F0E0808184609E
:10065000808380818D7F808380818160808346EF6D
:100660004A95F1F781E48BBB56EF5A95F1F78081FB
:100670008E7F80838091DA018F5F8093DA01089505
:10068000805C8068E5E6F0E090819B7F90839081BC
:100690009D7F908390819160908396EF9A95F1F77A
:1006A0008BBB46EF4A95F1F780818E7F808381E096
:1006B00006C0E6E6FEE03197F1F70000892F9FEFD4
:1006C000980F8111F6CFE5E6F0E0808184608083A9
:1006D00080818D7F808380818160808346EF4A9511
:1006E000F1F781E48BBB56EF5A95F1F780818E7F4D
:1006F00080838091DA018F5F8093DA01089581E031
:100700003BDE80E039DEA2E4B1E022C0119681E058
:1007100006C0E6E6FEE03197F1F70000822F2FEFEA
:10072000280F8111F6CFE5E6F0E0808184608083B8
:1007300080818D7F808380818160808346EF4A95B0
:10074000F1F79BBB56EF5A95F1F780818E7F80833E
:100750009C919111DBCF08958617C1F01092D701BB
:100760001092D6011092D50180E006DE81E004DE11
:10077000ECE5F1E007C0319680919B0085FFFCCF4E
:1007800090939C0090819111F6CF08958091DE01A5
:100790009091DF012091D3013091D401821B930B02
:1007A000059708F483C18091DE019091DF01909359
:1007B000D4018093D3018091D5018A3110F0109239
:1007C000D5018091D50151E4580F84EA80937400DB
:1007D00080E090E007C09C012F5F3F4F813D974034
:1007E00060F4C901209174002223ACF7809171005C
:1007F000887F883021F042E003C041E001C040E042
:1008000041113EC088E08093730084E880937400B7
:1008100080E090E007C09C012F5F3F4F813D9740F3
:1008200060F4C901209174002223ACF7809171001B
:10083000887F883119F042E001C041E0411120C0B9
:100840005093730084E88093740080E090E007C0C8
:100850009C012F5F3F4F813D974060F4C90120917B
:1008600074002223ACF780917100887F883219F0E0
:1008700042E001C041E0411103C084E9809374006B
:100880004111E8C0E5E6F0E080818B7F80838081C4
:100890008D7F808380818160808346EF4A95F1F768
:1008A00080E88BBB56EF5A95F1F780818E7F80836D
:1008B0008091D7018F5F8093D7011F928F938FE430
:1008C00091E09F938F9381EE92E09F938F9303D754
:1008D0000F900F900F900F900F900F90A1EEB2E03D
:1008E00022C0119681E006C0E6E6FEE03197F1F7FE
:1008F0000000822F2FEF280F8111F6CFE5E6F0E000
:1009000080818460808380818D7F8083808181600D
:10091000808346EF4A95F1F79BBB56EF5A95F1F766
:1009200080818E7F80839C919111DBCF8091D60155
:10093000803108F449C081E01FDD1092D601E5E660
:10094000F0E080818B7F808380818D7F80838081B8
:100950008160808366EF6A95F1F780EC8BBB86EF50
:100960008A95F1F780818E7F80839091D5019F5B7E
:1009700081E006C0E6E6FEE03197F1F70000822F45
:100980002FEF280F8111F6CFE5E6F0E0808184603B
:10099000808380818D7F808380818160808346EF2A
:1009A0004A95F1F79BBB56EF5A95F1F780818E7F00
:1009B00080838091D6018F5F8093D6018091D5018D
:1009C0008F5F8093D5010895805C8068E5E6F0E054
:1009D00090819B7F908390819D7F90839081916097
:1009E000908366EF6A95F1F78BBB86EF8A95F1F7F6
:1009F00080818E7F80839091D5019F5B81E006C0CE
:100A0000E6E6FEE03197F1F70000822F2FEF280F86
:100A10008111F6CFE5E6F0E08081846080838081FB
:100A20008D7F808380818160808346EF4A95F1F7D6
:100A30009BBB56EF5A95F1F780818E7F8083809122
:100A4000D6018F5F8093D6018091D5018F5F80930F
:100A5000D501089581E090DC80E08EDCA2E4B1E075
:100A600022C0119681E006C0E6E6FEE03197F1F77C
:100A70000000822F2FEF280F8111F6CFE5E6F0E07E
:100A800080818460808380818D7F8083808181608C
:100A9000808346EF4A95F1F79BBB56EF5A95F1F7E5
:100AA00080818E7F80839C919111DBCF0895861782
:100AB000C1F01092D2011092D1011092D00180E0C9
:100AC0005BDC81E059DCE8E6F1E007C0319680911B
:100AD0009B0085FFFCCF90939C0090819111F6CFF5
:100AE00008958091DE019091DF012091CE01309137
:100AF000CF01821B930B059708F495C18091DE010D
:100B00009091DF019093CF018093CE018091D0012D
:100B100090E0E0E0F1E001900020E9F73197E0504B
:100B2000F1408E179F0710F01092D001E091D00194
:100B3000F0E0E050FF4F508184EA8093740080E041
:100B400090E007C09C012F5F3F4F813D974060F4CC
:100B5000C901209174002223ACF780917100887F35
:100B6000883021F042E003C041E001C040E0411183
:100B70003EC088E08093730084E88093740080E036
:100B800090E007C09C012F5F3F4F813D974060F48C
:100B9000C901209174002223ACF780917100887FF5
:100BA000883119F042E001C041E0411120C050936A
:100BB000730084E88093740080E090E007C09C019B
:100BC0002F5F3F4F813D974060F4C9012091740031
:100BD0002223ACF780917100887F883219F042E0BF
:100BE00001C041E0411103C084E9809374004111C8
:100BF000EEC0E5E6F0E080818B7F808380818D7F91
:100C0000808380818160808346EF4A95F1F780E898
:100C10008BBB56EF5A95F1F780818E7F8083809150
:100C2000D2018F5F8093D2011F928F938FE491E066
:100C30009F938F9381EE92E09F938F934CD50F906B
:100C40000F900F900F900F900F90A1EEB2E022C086
:100C5000119681E006C0E6E6FEE03197F1F700006C
:100C6000822F2FEF280F8111F6CFE5E6F0E080818B
:100C70008460808380818D7F808380818160808398
:100C800046EF4A95F1F79BBB56EF5A95F1F78081F5
:100C90008E7F80839C919111DBCF8091D101803137
:100CA00008F44CC081E068DB1092D101E5E6F0E089
:100CB00080818B7F808380818D7F80838081816034
:100CC000808366EF6A95F1F780EC8BBB86EF8A959F
:100CD000F1F780818E7F8083E091D001F0E0E050D9
:100CE000FF4F208181E006C0E6E6FEE03197F1F794
:100CF0000000892F9FEF980F8111F6CFE5E6F0E015
:100D000080818460808380818D7F80838081816009
:100D1000808346EF4A95F1F72BBB56EF5A95F1F7D2
:100D200080818E7F80838091D1018F5F8093D101FC
:100D30008091D0018F5F8093D0010895805C80689E
:100D4000E5E6F0E090819B7F908390819D7F90838A
:100D500090819160908366EF6A95F1F78BBB86EF87
:100D60008A95F1F780818E7F8083E091D001F0E059
:100D7000E050FF4F208181E006C0E6E6FEE03197BB
:100D8000F1F70000892F9FEF980F8111F6CFE5E66C
:100D9000F0E080818460808380818D7F808380818A
:100DA0008160808346EF4A95F1F72BBB56EF5A9549
:100DB000F1F780818E7F80838091D1018F5F809356
:100DC000D1018091D0018F5F8093D001089581E09F
:100DD000D3DA80E0D1DAA2E4B1E022C0119681E05A
:100DE00006C0E6E6FEE03197F1F70000822F2FEF14
:100DF000280F8111F6CFE5E6F0E0808184608083E2
:100E000080818D7F808380818160808346EF4A95D9
:100E1000F1F79BBB56EF5A95F1F780818E7F808367
:100E20009C919111DBCF08958FEF8ABBE4E6F0E04F
:100E3000808187608083E5E6F0E080818B7F80831E
:100E400080818D7F808380818160808336EF3A95B9
:100E5000F1F788E38BBB46EF4A95F1F780818E7FEF
:100E6000808384E006C0E6E6FEE03197F1F70000FB
:100E7000892F9FEF980F8111F6CFE5E6F0E0808192
:100E80008B7F808380818D7F808380818160808360
:100E900036EF3A95F1F788E38BBB46EF4A95F1F7C9
:100EA00080818E7F808384E006C0E6E6FEE0319795
:100EB000F1F70000892F9FEF980F8111F6CFE5E63B
:100EC000F0E080818B7F808380818D7F8083808133
:100ED0008160808336EF3A95F1F788E38BBB46EF6C
:100EE0004A95F1F780818E7F808384E006C0E6E634
:100EF000FEE03197F1F70000892F9FEF980F8111E5
:100F0000F6CFE5E6F0E080818B7F808380818D7F66
:100F1000808380818160808336EF3A95F1F78EE09F
:100F20008BBB46EF4A95F1F780818E7F808382E00C
:100F300006C0E6E6FEE03197F1F70000892F9FEF4B
:100F4000980F8111F6CFE5E6F0E080818B7F8083FA
:100F500080818D7F808380818160808336EF3A95A8
:100F6000F1F786E08BBB46EF4A95F1F780818E7FE3
:100F7000808382E006C0E6E6FEE03197F1F70000EC
:100F8000892F9FEF980F8111F6CFE5E6F0E0808181
:100F90008B7F808380818D7F80838081816080834F
:100FA00036EF3A95F1F781E08BBB46EF4A95F1F7C2
:100FB00080818E7F808382E006C0E6E6FEE0319786
:100FC000F1F70000892F9FEF980F8111F6CF84D899
:100FD0001092710082E38093700084E0809374002B
:100FE00074D810929B0088E180939A0086E08093E9
:100FF0009D00109298008FE5809399000CD94BD9F1
:101000007894DFEFCFEF809135018F3F09F43DC336
:10101000809135019FEF90933501813009F4CCC068
:101020001CF4882341F007C3823009F486C1833061
:1010300009F444C200C3C11101C0DFEFE5E6F0E0EE
:1010400080818B7F808380818D7F808380818160A0
:10105000808336EF3A95F1F781E08BBB46EF4A95F6
:10106000F1F780818E7F808382E006C0E6E6FEE0B5
:101070003197F1F70000892F9FEF980F8111F6CF7C
:10108000E5E6F0E080818B7F808380818D7F8083A7
:1010900080818160808336EF3A95F1F780E88BBBE1
:1010A00046EF4A95F1F780818E7F8083A4E7B1E017
:1010B00022C0119681E006C0E6E6FEE03197F1F726
:1010C0000000822F2FEF280F8111F6CFE5E6F0E028
:1010D00080818460808380818D7F80838081816036
:1010E000808336EF3A95F1F79BBB46EF4A95F1F7CF
:1010F00080818E7F80839C919111DBCF84EA8093E5
:10110000740080E090E007C09C012F5F3F4F813D5D
:10111000974060F4C901209174002223ACF78091BC
:101120007100887F883021F022E003C021E001C0F7
:1011300020E021113FC088E08093730084E8809311
:10114000740080E090E007C0AC014F5F5F4F813DCD
:10115000974060F4CA01309174003323ACF780915A
:101160007100887F883119F022E001C021E021114F
:1011700021C083E38093730084E88093740080E04F
:1011800090E007C0AC014F5F5F4F813D974060F436
:10119000CA01309174003323ACF780917100887FCD
:1011A000883219F022E001C021E0211103C084E956
:1011B00080937400C0E03FC2C13009F4DFEFE5E680
:1011C000F0E080818B7F808380818D7F8083808130
:1011D0008160808346EF4A95F1F781E08BBB86EF13
:1011E0008A95F1F780818E7F808382E006C0E6E6F3
:1011F000FEE03197F1F70000892F9FEF980F8111E2
:10120000F6CFE5E6F0E080818B7F808380818D7F63
:10121000808380818160808336EF3A95F1F780E8A2
:101220008BBB46EF4A95F1F780818E7F8083A1E8E2
:10123000B1E022C0119681E006C0E6E6FEE03197FB
:10124000F1F70000822F2FEF280F8111F6CFE5E68E
:10125000F0E080818460808380818D7F80838081C5
:101260008160808336EF3A95F1F79BBB46EF4A9554
:10127000F1F780818E7F80839C919111DBCF84EA8E
:101280008093740080E090E007C09C012F5F3F4F87
:10129000813D974060F4C901209174002223ACF78E
:1012A00080917100887F883021F022E003C021E026
:1012B00001C020E021113FC088E08093730084E8E2
:1012C0008093740080E090E007C0AC014F5F5F4FF7
:1012D000813D974060F4CA01309174003323ACF72C
:1012E00080917100887F883119F022E001C021E0EF
:1012F000211121C083E38093730084E880937400FC
:1013000080E090E007C0AC014F5F5F4F813D9740A8
:1013100060F4CA01309174003323ACF780917100FE
:10132000887F883219F022E001C021E0211103C03A
:1013300084E980937400C1E07EC1C23009F4DFEF1C
:10134000E5E6F0E080818B7F808380818D7F8083E4
:1013500080818160808346EF4A95F1F781E08BBB05
:1013600086EF8A95F1F780818E7F808382E006C0C8
:10137000E6E6FEE03197F1F70000892F9FEF980F26
:101380008111F6CFE5E6F0E080818B7F808380815C
:101390008D7F808380818160808336EF3A95F1F77D
:1013A00080E88BBB46EF4A95F1F780818E7F808382
:1013B000AEE8B1E022C0119681E006C0E6E6FEE0AC
:1013C0003197F1F70000822F2FEF280F8111F6CF10
:1013D000E5E6F0E080818460808380818D7F80837A
:1013E00080818160808336EF3A95F1F79BBB46EFB1
:1013F0004A95F1F780818E7F80839C919111DBCF9C
:1014000084EA8093740080E090E007C09C012F5F25
:101410003F4F813D974060F4C90120917400222321
:10142000ACF780917100887F883021F022E003C002
:1014300021E001C020E021113FC088E080937300CB
:1014400084E88093740080E090E007C0AC014F5FB7
:101450005F4F813D974060F4CA013091740033239F
:10146000ACF780917100887F883119F022E001C0CB
:1014700021E0211121C083E38093730084E88093ED
:10148000740080E090E007C0AC014F5F5F4F813D8A
:10149000974060F4CA01309174003323ACF7809117
:1014A0007100887F883219F022E001C021E021110B
:1014B00003C084E980937400C2E0BDC0E5E6F0E0BB
:1014C00080818B7F808380818D7F8083808181601C
:1014D000808346EF4A95F1F781E08BBB86EF8A95D2
:1014E000F1F780818E7F808382E006C0E6E6FEE031
:1014F0003197F1F70000892F9FEF980F8111F6CFF8
:10150000E5E6F0E080818B7F808380818D7F808322
:1015100080818160808336EF3A95F1F780E88BBB5C
:1015200046EF4A95F1F780818E7F8083ABE9B1E089
:1015300022C0119681E006C0E6E6FEE03197F1F7A1
:101540000000822F2FEF280F8111F6CFE5E6F0E0A3
:1015500080818460808380818D7F808380818160B1
:10156000808336EF3A95F1F79BBB46EF4A95F1F74A
:1015700080818E7F80839C919111DBCF84EA809360
:10158000740080E090E007C09C012F5F3F4F813DD9
:10159000974060F4C901209174002223ACF7809138
:1015A0007100887F883021F022E003C021E001C073
:1015B00020E021113FC088E08093730084E880938D
:1015C000740080E090E007C0AC014F5F5F4F813D49
:1015D000974060F4CA01309174003323ACF78091D6
:1015E0007100887F883119F022E001C021E02111CB
:1015F00021C083E38093730084E88093740080E0CB
:1016000090E007C0AC014F5F5F4F813D974060F4B1
:10161000CA01309174003323ACF780917100887F48
:10162000883219F022E001C021E0211103C084E9D1
:1016300080937400CFEF8D2F0D2E000C990B9F938C
:10164000DF938C2F0C2E000C990B9F93CF9388EA7D
:1016500091E09F938F9382EE91E09F938F933BD085
:101660008DB79EB708960FB6F8949EBF0FBE8DBF7C
:10167000E2EEF1E007C0319680919B0085FFFCCF40
:1016800090939C0090819111F6CFC11106C06D2FEF
:101690008C2F0E941902DC2FB6CCC13029F46D2F9B
:1016A0008C2F5AD8DC2FAFCCC23009F0ACCC6D2FC8
:1016B0008C2FFDD9DC2FA7CCA29FB001B39FC00116
:1016C000A39F700D811D1124911DB29F700D811D6E
:1016D0001124911D08950F931F93CF93DF93CDB7DE
:1016E000DEB72E970FB6F894DEBF0FBECDBF0D89C3
:1016F0001E8986E08C831A8309838FEF9FE79E8380
:101700008D83AE01475E5F4F6F89788DCE01019664
:1017100010D0EF81F885E00FF11F10822E960FB6E2
:10172000F894DEBF0FBECDBFDF91CF911F910F9117
:1017300008952F923F924F925F926F927F928F9275
:101740009F92AF92BF92CF92DF92EF92FF920F9350
:101750001F93CF93DF93CDB7DEB72B970FB6F894D7
:10176000DEBF0FBECDBF6C017B018A01FC01178279
:101770001682838181FFBFC1CE0101963C01F60133
:101780009381F70193FD859193FF81917F018823D8
:1017900009F4ADC1853239F493FD859193FF8191B0
:1017A0007F01853221F4B60190E0D6D1E8CF912CAB
:1017B000212C312CFFE1F315D8F08B3279F038F47D
:1017C000803279F08332A1F4232D20611DC08D3247
:1017D00061F0803369F4232D216016C0832D82606F
:1017E000382EE32DE4603E2E2AC0F32DF8601DC094
:1017F00037FC2DC020ED280F2A3040F08E32B9F48E
:1018000036FC75C1232D2064322E19C036FE06C069
:101810008AE0989E200D1124922E11C0EAE02E9E9F
:10182000200D1124222EF32DF0623F2E08C08C369D
:1018300021F4832D8068382E02C0883641F4F701E8
:1018400093FD859193FF81917F018111B3CF982FF3
:101850009F7D9554933028F40C5F1F4F9FE399832D
:101860000DC0833631F0833771F0833509F055C0F0
:1018700020C0F801808189830E5F1F4F88248394E4
:10188000912C530112C02801F2E04F0E511CF801B7
:10189000A080B18036FE03C0692D70E002C06FEFFA
:1018A0007FEFC5014ED14C018201F32DFF773F2E12
:1018B00015C0280122E0420E511CF801A080B18021
:1018C00036FE03C0692D70E002C06FEF7FEFC501E7
:1018D0002DD14C01F32DF0683F2E820133FC19C04D
:1018E000822D90E088169906A0F4B60180E290E07F
:1018F00033D12A94F5CFF50137FC859137FE8191DC
:101900005F01B60190E028D121102A9421E0821ACB
:1019100091088114910479F7E1C0843611F0893679
:1019200039F5F80137FE07C06081718182819381AA
:101930000C5F1F4F08C060817181072E000C880B5F
:10194000990B0E5F1F4FF32DFF763F2E97FF09C0B7
:1019500090958095709561957F4F8F4F9F4FF06860
:101960003F2E2AE030E0A30133D1882E861844C0F0
:10197000853731F4232D2F7EB22E2AE030E025C0AA
:10198000932D997FB92E8F36C1F018F4883579F0F0
:10199000AEC0803719F0883721F0A9C0E92FE06187
:1019A000BE2EB4FE0DC0FB2DF460BF2E09C034FE68
:1019B0000AC0292F2660B22E06C028E030E005C0FC
:1019C00020E130E002C020E132E0F801B7FE07C0BC
:1019D00060817181828193810C5F1F4F06C060819D
:1019E000718180E090E00E5F1F4FA301F1D0882E3F
:1019F0008618FB2DFF773F2E36FE0DC0232D2E7F40
:101A0000A22E891458F434FE0BC032FC09C0832D79
:101A10008E7EA82E05C0B82CA32C03C0B82C01C004
:101A2000B92CA4FE0FC0FE01E80DF11D80818033AA
:101A300021F49A2D997EA92E09C0A2FE06C0B39466
:101A4000B39404C08A2D867809F0B394A3FC10C027
:101A5000A0FE06C0B21480F4280C922C9B180DC076
:101A6000B21458F4B60180E290E076D0B394F8CF87
:101A7000B21418F42B1802C0982C212CA4FE0FC00D
:101A8000B60180E390E068D0A2FE16C0A1FC03C0BE
:101A900088E790E002C088E590E0B6010CC08A2D8E
:101AA000867851F0A1FE02C08BE201C080E2A7FC63
:101AB0008DE2B60190E050D0891430F4B60180E395
:101AC00090E04AD09A94F8CF8A94F301E80DF11D82
:101AD0008081B60190E040D08110F6CF222009F439
:101AE0004ECEB60180E290E037D02A94F7CFF601CF
:101AF0008681978102C08FEF9FEF2B960FB6F894E7
:101B0000DEBF0FBECDBFDF91CF911F910F91FF9030
:101B1000EF90DF90CF90BF90AF909F908F907F908D
:101B20006F905F904F903F902F900895FC0105902B
:101B3000615070400110D8F7809590958E0F9F1FCF
:101B40000895FC016150704001900110D8F7809514
:101B500090958E0F9F1F08950F931F93CF93DF9340
:101B6000FB01238121FD03C08FEF9FEF2CC022FFDB
:101B700016C046815781248135814217530744F4AA
:101B8000A081B1819D012F5F3F4F318320838C93D2
:101B9000268137812F5F3F4F3783268314C08B0107
:101BA000EC01FB010084F185E02D0995892BE1F61C
:101BB000D80116968D919C911797019617969C9334
:101BC0008E931697CE01DF91CF911F910F910895BB
:101BD000FA01AA27283051F1203181F1E8946F935E
:101BE0006E7F6E5F7F4F8F4F9F4FAF4FB1E03ED004
:101BF000B4E03CD0670F781F891F9A1FA11D680FA2
:101C0000791F8A1F911DA11D6A0F711D811D911DD4
:101C1000A11D20D009F468943F912AE0269F112449
:101C20003019305D3193DEF6CF010895462F4770AD
:101C3000405D4193B3E00FD0C9F7F6CF462F4F7008
:101C4000405D4A3318F0495D31FD4052419302D066
:101C5000A9F7EACFB4E0A69597958795779567950C
:101C6000BA95C9F700976105710508959B01AC010C
:101C70000A2E06945795479537952795BA95C9F733
:101C8000620F731F841F951FA01D0895F894FFCF46
:101C90005465636820556E6976657273697479203E
:101CA0006F66204B4F5245412C2044657061727421
:101CB0006D656E74206F6620656C656374726F6EFF
:101CC000696320000FFF5043302072657365740D07
:101CD0000A00545749205458204572726F720054BC
:101CE0005820636F756E743A20256400504331208C
:101CF00072657365740D0A00504332207265736516
:101D0000740D0A007063203020507265737365642F
:101D100000706320312050726573736564007063D6
:101D20002032205072657373656400706320332025
:101D3000507265737365640025642025640D0A0084
:101D40007072657373205043302E2E504332004121
:0E1D5000565220545749204D6173746572003D
:00000001FF
